{
	"data": {
		"bytecode": {
			"linkReferences": {
				"contracts/library.sol": {
					"probability": [
						{
							"length": 20,
							"start": 3466
						}
					]
				}
			},
			"object": "608060405273304cea8577d6265b599dcdaa7bb28f1e81638cf2600760006101000a81548173ffffffffffffffffffffffffffffffffffffffff021916908373ffffffffffffffffffffffffffffffffffffffff1602179055503480156200006657600080fd5b50604051620028093803806200280983398181016040528101906200008c9190620001c0565b806000806101000a81548173ffffffffffffffffffffffffffffffffffffffff021916908373ffffffffffffffffffffffffffffffffffffffff16021790555081600160006101000a81548173ffffffffffffffffffffffffffffffffffffffff021916908373ffffffffffffffffffffffffffffffffffffffff16021790555081600660006101000a81548173ffffffffffffffffffffffffffffffffffffffff021916908373ffffffffffffffffffffffffffffffffffffffff160217905550505062000207565b600080fd5b600073ffffffffffffffffffffffffffffffffffffffff82169050919050565b600062000188826200015b565b9050919050565b6200019a816200017b565b8114620001a657600080fd5b50565b600081519050620001ba816200018f565b92915050565b60008060408385031215620001da57620001d962000156565b5b6000620001ea85828601620001a9565b9250506020620001fd85828601620001a9565b9150509250929050565b6125f280620002176000396000f3fe608060405234801561001057600080fd5b506004361061010b5760003560e01c8063837e7cc6116100a25780639d76ea58116100715780639d76ea581461029e578063a0e2ef69146102bc578063c137d643146102ec578063c3e5ed731461031c578063f88d6732146103385761010b565b8063837e7cc614610228578063893d20e81461023257806389a5b229146102505780638da5cb5b146102805761010b565b80634251ea3c116100de5780634251ea3c1461018657806359097195146101be5780635ba40c2e146101c85780636d30a29d146101f85761010b565b80632911982e14610110578063334e4ff5146101405780633851660f1461014a578063390784b114610168575b600080fd5b61012a60048036038101906101259190611abc565b610368565b6040516101379190611b02565b60405180910390f35b61014861040d565b005b6101526105ea565b60405161015f9190611bdb565b60405180910390f35b610170610642565b60405161017d9190611b02565b60405180910390f35b6101a0600480360381019061019b9190611abc565b61064f565b6040516101b599989796959493929190611bfd565b60405180910390f35b6101c661069d565b005b6101e260048036038101906101dd9190611cb6565b6107cc565b6040516101ef9190611b02565b60405180910390f35b610212600480360381019061020d9190611abc565b6107f0565b60405161021f9190611b02565b60405180910390f35b610230610808565b005b61023a610d20565b6040516102479190611cf2565b60405180910390f35b61026a60048036038101906102659190611cb6565b610d49565b6040516102779190611cf2565b60405180910390f35b610288610d88565b6040516102959190611cf2565b60405180910390f35b6102a6610dac565b6040516102b39190611cf2565b60405180910390f35b6102d660048036038101906102d19190611abc565b610dd2565b6040516102e39190611b02565b60405180910390f35b61030660048036038101906103019190611abc565b610e89565b6040516103139190611dc4565b60405180910390f35b61033660048036038101906103319190611f39565b610fab565b005b610352600480360381019061034d9190611cb6565b6114a4565b60405161035f9190611b02565b60405180910390f35b6000600660009054906101000a900473ffffffffffffffffffffffffffffffffffffffff1673ffffffffffffffffffffffffffffffffffffffff166370a08231836040518263ffffffff1660e01b81526004016103c59190611cf2565b602060405180830381865afa1580156103e2573d6000803e3d6000fd5b505050506040513d601f19601f820116820180604052508101906104069190611f97565b9050919050565b600061041833610dd2565b9050600660009054906101000a900473ffffffffffffffffffffffffffffffffffffffff1673ffffffffffffffffffffffffffffffffffffffff1663022fc88b600160009054906101000a900473ffffffffffffffffffffffffffffffffffffffff16836040518363ffffffff1660e01b8152600401610499929190611fc4565b6020604051808303816000875af11580156104b8573d6000803e3d6000fd5b505050506040513d601f19601f820116820180604052508101906104dc9190612025565b50600660009054906101000a900473ffffffffffffffffffffffffffffffffffffffff1673ffffffffffffffffffffffffffffffffffffffff166323b872dd600160009054906101000a900473ffffffffffffffffffffffffffffffffffffffff1633846040518463ffffffff1660e01b815260040161055e93929190612052565b6020604051808303816000875af115801561057d573d6000803e3d6000fd5b505050506040513d601f19601f820116820180604052508101906105a19190612025565b506000600460003373ffffffffffffffffffffffffffffffffffffffff1673ffffffffffffffffffffffffffffffffffffffff1681526020019081526020016000208190555050565b6060600580548060200260200160405190810160405280929190818152602001828054801561063857602002820191906000526020600020905b815481526020019060010190808311610624575b5050505050905090565b6000600580549050905090565b60036020528060005260406000206000915090508060000154908060010154908060020154908060030154908060040154908060050154908060060154908060070154908060080154905089565b60008054906101000a900473ffffffffffffffffffffffffffffffffffffffff1673ffffffffffffffffffffffffffffffffffffffff163373ffffffffffffffffffffffffffffffffffffffff161461072b576040517f08c379a00000000000000000000000000000000000000000000000000000000081526004016107229061210c565b60405180910390fd5b6000600760009054906101000a900473ffffffffffffffffffffffffffffffffffffffff1690508073ffffffffffffffffffffffffffffffffffffffff1663e0c862896040518163ffffffff1660e01b81526004016020604051808303816000875af115801561079f573d6000803e3d6000fd5b505050506040513d601f19601f820116820180604052508101906107c39190611f97565b60088190555050565b600981815481106107dc57600080fd5b906000526020600020016000915090505481565b60046020528060005260406000206000915090505481565b60008054906101000a900473ffffffffffffffffffffffffffffffffffffffff1673ffffffffffffffffffffffffffffffffffffffff163373ffffffffffffffffffffffffffffffffffffffff1614610896576040517f08c379a000000000000000000000000000000000000000000000000000000000815260040161088d9061210c565b60405180910390fd5b61089e61069d565b6000600580549050146108e6576040517f08c379a00000000000000000000000000000000000000000000000000000000081526004016108dd90612178565b60405180910390fd5b6000600667ffffffffffffffff81111561090357610902611df6565b5b6040519080825280602002602001820160405280156109315781602001602082028036833780820191505090505b50905060005b600681101561099657600a60085461094f91906121c7565b828281518110610962576109616121f8565b5b602002602001018181525050600a60085461097d9190612256565b600881905550808061098e90612287565b915050610937565b506000816005815181106109ad576109ac6121f8565b5b6020026020010151826004815181106109c9576109c86121f8565b5b6020026020010151836003815181106109e5576109e46121f8565b5b602002602001015184600281518110610a0157610a006121f8565b5b602002602001015185600181518110610a1d57610a1c6121f8565b5b602002602001015186600081518110610a3957610a386121f8565b5b6020026020010151610a4b91906122cf565b610a5591906122cf565b610a5f91906122cf565b610a6991906122cf565b610a7391906122cf565b905060008167ffffffffffffffff811115610a9157610a90611df6565b5b604051908082528060200260200182016040528015610abf5781602001602082028036833780820191505090505b5090506000805b6006811015610b565760005b858281518110610ae557610ae46121f8565b5b6020026020010151811015610b4257600182610b0191906122cf565b848481518110610b1457610b136121f8565b5b602002602001018181525050600183610b2d91906122cf565b92508080610b3a90612287565b915050610ad2565b508080610b4e90612287565b915050610ac6565b508160099080519060200190610b6d929190611994565b5060008073__$ccf2807a51f4521705b6cae09a65c67af0$__6366e2463d600854876040518363ffffffff1660e01b8152600401610bac929190612312565b6040805180830381865af4158015610bc8573d6000803e3d6000fd5b505050506040513d601f19601f82011682018060405250810190610bec919061233b565b8092508193505050600560098381548110610c0a57610c096121f8565b5b90600052602060002001549080600181540180825580915050600190039060005260206000200160009091909190915055600560098281548110610c5157610c506121f8565b5b906000526020600020015490806001815401808255809150506001900390600052602060002001600090919091909150553373ffffffffffffffffffffffffffffffffffffffff167f9f3d1596f73d6658ea5ee6155f974b2a6b43833dab39a0ca2e14656a57330fe86005600081548110610ccf57610cce6121f8565b5b90600052602060002001546005600181548110610cef57610cee6121f8565b5b9060005260206000200154604051610d0892919061237b565b60405180910390a2610d186114c8565b505050505050565b60008060009054906101000a900473ffffffffffffffffffffffffffffffffffffffff16905090565b60028181548110610d5957600080fd5b906000526020600020016000915054906101000a900473ffffffffffffffffffffffffffffffffffffffff1681565b60008054906101000a900473ffffffffffffffffffffffffffffffffffffffff1681565b600160009054906101000a900473ffffffffffffffffffffffffffffffffffffffff1681565b60008173ffffffffffffffffffffffffffffffffffffffff163373ffffffffffffffffffffffffffffffffffffffff1614610e42576040517f08c379a0000000000000000000000000000000000000000000000000000000008152600401610e3990612416565b60405180910390fd5b600460008373ffffffffffffffffffffffffffffffffffffffff1673ffffffffffffffffffffffffffffffffffffffff168152602001908152602001600020549050919050565b610e916119e1565b3373ffffffffffffffffffffffffffffffffffffffff168273ffffffffffffffffffffffffffffffffffffffff1614610eff576040517f08c379a0000000000000000000000000000000000000000000000000000000008152600401610ef690612482565b60405180910390fd5b600360008373ffffffffffffffffffffffffffffffffffffffff1673ffffffffffffffffffffffffffffffffffffffff1681526020019081526020016000206040518061012001604052908160008201548152602001600182015481526020016002820154815260200160038201548152602001600482015481526020016005820154815260200160068201548152602001600782015481526020016008820154815250509050919050565b600081600881518110610fc157610fc06121f8565b5b602002602001015182600581518110610fdd57610fdc6121f8565b5b602002602001015183600381518110610ff957610ff86121f8565b5b602002602001015184600181518110611015576110146121f8565b5b602002602001015161102791906122cf565b61103191906122cf565b61103b91906122cf565b9050600660009054906101000a900473ffffffffffffffffffffffffffffffffffffffff1673ffffffffffffffffffffffffffffffffffffffff1663022fc88b33836040518363ffffffff1660e01b815260040161109a929190611fc4565b6020604051808303816000875af11580156110b9573d6000803e3d6000fd5b505050506040513d601f19601f820116820180604052508101906110dd9190612025565b61111c576040517f08c379a0000000000000000000000000000000000000000000000000000000008152600401611113906124ee565b60405180910390fd5b600660009054906101000a900473ffffffffffffffffffffffffffffffffffffffff1673ffffffffffffffffffffffffffffffffffffffff166323b872dd33600160009054906101000a900473ffffffffffffffffffffffffffffffffffffffff16846040518463ffffffff1660e01b815260040161119d93929190612052565b6020604051808303816000875af11580156111bc573d6000803e3d6000fd5b505050506040513d601f19601f820116820180604052508101906111e09190612025565b61121f576040517f08c379a00000000000000000000000000000000000000000000000000000000081526004016112169061255a565b60405180910390fd5b6002339080600181540180825580915050600190039060005260206000200160009091909190916101000a81548173ffffffffffffffffffffffffffffffffffffffff021916908373ffffffffffffffffffffffffffffffffffffffff160217905550604051806101200160405280836000815181106112a2576112a16121f8565b5b60200260200101518152602001836001815181106112c3576112c26121f8565b5b60200260200101518152602001836002815181106112e4576112e36121f8565b5b6020026020010151815260200183600381518110611305576113046121f8565b5b6020026020010151815260200183600481518110611326576113256121f8565b5b6020026020010151815260200183600581518110611347576113466121f8565b5b6020026020010151815260200183600681518110611368576113676121f8565b5b6020026020010151815260200183600781518110611389576113886121f8565b5b60200260200101518152602001836008815181106113aa576113a96121f8565b5b6020026020010151815250600360003373ffffffffffffffffffffffffffffffffffffffff1673ffffffffffffffffffffffffffffffffffffffff168152602001908152602001600020600082015181600001556020820151816001015560408201518160020155606082015181600301556080820151816004015560a0820151816005015560c0820151816006015560e0820151816007015561010082015181600801559050503373ffffffffffffffffffffffffffffffffffffffff167f43e08d78302cdf9c94e1ffd293c2a3696139ee41cf3199b6f5eed9c7f6cc6090826040516114989190611b02565b60405180910390a25050565b600581815481106114b457600080fd5b906000526020600020016000915090505481565b60005b6002805490508110156115cf576000600282815481106114ee576114ed6121f8565b5b9060005260206000200160009054906101000a900473ffffffffffffffffffffffffffffffffffffffff1690506000611526826115d2565b905080600460008473ffffffffffffffffffffffffffffffffffffffff1673ffffffffffffffffffffffffffffffffffffffff168152602001908152602001600020819055508173ffffffffffffffffffffffffffffffffffffffff167f483641552b4cdd80c6407fa2667163a422d3da9be81d2c23efbfaca9944029f2826040516115b29190611b02565b60405180910390a2505080806115c790612287565b9150506114cb565b50565b600080600090506000600360008573ffffffffffffffffffffffffffffffffffffffff1673ffffffffffffffffffffffffffffffffffffffff16815260200190815260200160002060405180610120016040529081600082015481526020016001820154815260200160028201548152602001600382015481526020016004820154815260200160058201548152602001600682015481526020016007820154815260200160088201548152505090506005600181548110611697576116966121f8565b5b906000526020600020015460056000815481106116b7576116b66121f8565b5b90600052602060002001546116cc91906122cf565b81600001510361170157600a601182602001516116e9919061257a565b6116f39190612256565b826116fe91906122cf565b91505b6000816040015114801561176a5750600060026005600181548110611729576117286121f8565b5b90600052602060002001546005600081548110611749576117486121f8565b5b906000526020600020015461175e91906122cf565b61176891906121c7565b145b1561179a57600a60138260600151611782919061257a565b61178c9190612256565b8261179791906122cf565b91505b6001816040015114801561180357506001600260056001815481106117c2576117c16121f8565b5b906000526020600020015460056000815481106117e2576117e16121f8565b5b90600052602060002001546117f791906122cf565b61180191906121c7565b145b1561183357600a6013826060015161181b919061257a565b6118259190612256565b8261183091906122cf565b91505b6005600081548110611848576118476121f8565b5b90600052602060002001548160800151148061188657506005600181548110611874576118736121f8565b5b90600052602060002001548160800151145b156118b657600a60198260a0015161189e919061257a565b6118a89190612256565b826118b391906122cf565b91505b60056000815481106118cb576118ca6121f8565b5b90600052602060002001548160c0015114801561190a575060056001815481106118f8576118f76121f8565b5b90600052602060002001548160e00151145b8061196557506005600181548110611925576119246121f8565b5b90600052602060002001548160c0015114801561196457506005600081548110611952576119516121f8565b5b90600052602060002001548160e00151145b5b1561198a57600a81610100015161197c919061257a565b8261198791906122cf565b91505b8192505050919050565b8280548282559060005260206000209081019282156119d0579160200282015b828111156119cf5782518255916020019190600101906119b4565b5b5090506119dd9190611a2d565b5090565b6040518061012001604052806000815260200160008152602001600081526020016000815260200160008152602001600081526020016000815260200160008152602001600081525090565b5b80821115611a46576000816000905550600101611a2e565b5090565b6000604051905090565b600080fd5b600080fd5b600073ffffffffffffffffffffffffffffffffffffffff82169050919050565b6000611a8982611a5e565b9050919050565b611a9981611a7e565b8114611aa457600080fd5b50565b600081359050611ab681611a90565b92915050565b600060208284031215611ad257611ad1611a54565b5b6000611ae084828501611aa7565b91505092915050565b6000819050919050565b611afc81611ae9565b82525050565b6000602082019050611b176000830184611af3565b92915050565b600081519050919050565b600082825260208201905092915050565b6000819050602082019050919050565b611b5281611ae9565b82525050565b6000611b648383611b49565b60208301905092915050565b6000602082019050919050565b6000611b8882611b1d565b611b928185611b28565b9350611b9d83611b39565b8060005b83811015611bce578151611bb58882611b58565b9750611bc083611b70565b925050600181019050611ba1565b5085935050505092915050565b60006020820190508181036000830152611bf58184611b7d565b905092915050565b600061012082019050611c13600083018c611af3565b611c20602083018b611af3565b611c2d604083018a611af3565b611c3a6060830189611af3565b611c476080830188611af3565b611c5460a0830187611af3565b611c6160c0830186611af3565b611c6e60e0830185611af3565b611c7c610100830184611af3565b9a9950505050505050505050565b611c9381611ae9565b8114611c9e57600080fd5b50565b600081359050611cb081611c8a565b92915050565b600060208284031215611ccc57611ccb611a54565b5b6000611cda84828501611ca1565b91505092915050565b611cec81611a7e565b82525050565b6000602082019050611d076000830184611ce3565b92915050565b61012082016000820151611d246000850182611b49565b506020820151611d376020850182611b49565b506040820151611d4a6040850182611b49565b506060820151611d5d6060850182611b49565b506080820151611d706080850182611b49565b5060a0820151611d8360a0850182611b49565b5060c0820151611d9660c0850182611b49565b5060e0820151611da960e0850182611b49565b50610100820151611dbe610100850182611b49565b50505050565b600061012082019050611dda6000830184611d0d565b92915050565b600080fd5b6000601f19601f8301169050919050565b7f4e487b7100000000000000000000000000000000000000000000000000000000600052604160045260246000fd5b611e2e82611de5565b810181811067ffffffffffffffff82111715611e4d57611e4c611df6565b5b80604052505050565b6000611e60611a4a565b9050611e6c8282611e25565b919050565b600067ffffffffffffffff821115611e8c57611e8b611df6565b5b602082029050602081019050919050565b600080fd5b6000611eb5611eb084611e71565b611e56565b90508083825260208201905060208402830185811115611ed857611ed7611e9d565b5b835b81811015611f015780611eed8882611ca1565b845260208401935050602081019050611eda565b5050509392505050565b600082601f830112611f2057611f1f611de0565b5b8135611f30848260208601611ea2565b91505092915050565b600060208284031215611f4f57611f4e611a54565b5b600082013567ffffffffffffffff811115611f6d57611f6c611a59565b5b611f7984828501611f0b565b91505092915050565b600081519050611f9181611c8a565b92915050565b600060208284031215611fad57611fac611a54565b5b6000611fbb84828501611f82565b91505092915050565b6000604082019050611fd96000830185611ce3565b611fe66020830184611af3565b9392505050565b60008115159050919050565b61200281611fed565b811461200d57600080fd5b50565b60008151905061201f81611ff9565b92915050565b60006020828403121561203b5761203a611a54565b5b600061204984828501612010565b91505092915050565b60006060820190506120676000830186611ce3565b6120746020830185611ce3565b6120816040830184611af3565b949350505050565b600082825260208201905092915050565b7f4f6e6c7920636f6e7472616374206f776e65722063616e2063616c6c2074686960008201527f732066756e6374696f6e2e000000000000000000000000000000000000000000602082015250565b60006120f6602b83612089565b91506121018261209a565b604082019050919050565b60006020820190508181036000830152612125816120e9565b9050919050565b7f44696365206861766520616c7265616479206265656e20726f6c6c65642e0000600082015250565b6000612162601e83612089565b915061216d8261212c565b602082019050919050565b6000602082019050818103600083015261219181612155565b9050919050565b7f4e487b7100000000000000000000000000000000000000000000000000000000600052601260045260246000fd5b60006121d282611ae9565b91506121dd83611ae9565b9250826121ed576121ec612198565b5b828206905092915050565b7f4e487b7100000000000000000000000000000000000000000000000000000000600052603260045260246000fd5b7f4e487b7100000000000000000000000000000000000000000000000000000000600052601160045260246000fd5b600061226182611ae9565b915061226c83611ae9565b92508261227c5761227b612198565b5b828204905092915050565b600061229282611ae9565b91507fffffffffffffffffffffffffffffffffffffffffffffffffffffffffffffffff82036122c4576122c3612227565b5b600182019050919050565b60006122da82611ae9565b91506122e583611ae9565b92508282019050808211156122fd576122fc612227565b5b92915050565b61230c81611ae9565b82525050565b60006040820190506123276000830185612303565b6123346020830184612303565b9392505050565b6000806040838503121561235257612351611a54565b5b600061236085828601611f82565b925050602061237185828601611f82565b9150509250929050565b60006040820190506123906000830185611af3565b61239d6020830184611af3565b9392505050565b7f596f752063616e206f6e6c7920636865636b20796f7572206f776e2062616c6160008201527f6e63650000000000000000000000000000000000000000000000000000000000602082015250565b6000612400602383612089565b915061240b826123a4565b604082019050919050565b6000602082019050818103600083015261242f816123f3565b9050919050565b7f596f752063616e206f6e6c79207669657720796f7572206f776e206265747300600082015250565b600061246c601f83612089565b915061247782612436565b602082019050919050565b6000602082019050818103600083015261249b8161245f565b9050919050565b7f417070726f76616c206661696c65640000000000000000000000000000000000600082015250565b60006124d8600f83612089565b91506124e3826124a2565b602082019050919050565b60006020820190508181036000830152612507816124cb565b9050919050565b7f4661696c656420746f207472616e736665722043485020746f6b656e732e0000600082015250565b6000612544601e83612089565b915061254f8261250e565b602082019050919050565b6000602082019050818103600083015261257381612537565b9050919050565b600061258582611ae9565b915061259083611ae9565b925082820261259e81611ae9565b915082820484148315176125b5576125b4612227565b5b509291505056fea2646970667358221220241ab561104e5dbac0d6df1c771cc6b2ad8687914423f3e3bf13106772eeb84a64736f6c63430008120033",
			"opcodes": "PUSH1 0x80 PUSH1 0x40 MSTORE PUSH20 0x304CEA8577D6265B599DCDAA7BB28F1E81638CF2 PUSH1 0x7 PUSH1 0x0 PUSH2 0x100 EXP DUP2 SLOAD DUP2 PUSH20 0xFFFFFFFFFFFFFFFFFFFFFFFFFFFFFFFFFFFFFFFF MUL NOT AND SWAP1 DUP4 PUSH20 0xFFFFFFFFFFFFFFFFFFFFFFFFFFFFFFFFFFFFFFFF AND MUL OR SWAP1 SSTORE POP CALLVALUE DUP1 ISZERO PUSH3 0x66 JUMPI PUSH1 0x0 DUP1 REVERT JUMPDEST POP PUSH1 0x40 MLOAD PUSH3 0x2809 CODESIZE SUB DUP1 PUSH3 0x2809 DUP4 CODECOPY DUP2 DUP2 ADD PUSH1 0x40 MSTORE DUP2 ADD SWAP1 PUSH3 0x8C SWAP2 SWAP1 PUSH3 0x1C0 JUMP JUMPDEST DUP1 PUSH1 0x0 DUP1 PUSH2 0x100 EXP DUP2 SLOAD DUP2 PUSH20 0xFFFFFFFFFFFFFFFFFFFFFFFFFFFFFFFFFFFFFFFF MUL NOT AND SWAP1 DUP4 PUSH20 0xFFFFFFFFFFFFFFFFFFFFFFFFFFFFFFFFFFFFFFFF AND MUL OR SWAP1 SSTORE POP DUP2 PUSH1 0x1 PUSH1 0x0 PUSH2 0x100 EXP DUP2 SLOAD DUP2 PUSH20 0xFFFFFFFFFFFFFFFFFFFFFFFFFFFFFFFFFFFFFFFF MUL NOT AND SWAP1 DUP4 PUSH20 0xFFFFFFFFFFFFFFFFFFFFFFFFFFFFFFFFFFFFFFFF AND MUL OR SWAP1 SSTORE POP DUP2 PUSH1 0x6 PUSH1 0x0 PUSH2 0x100 EXP DUP2 SLOAD DUP2 PUSH20 0xFFFFFFFFFFFFFFFFFFFFFFFFFFFFFFFFFFFFFFFF MUL NOT AND SWAP1 DUP4 PUSH20 0xFFFFFFFFFFFFFFFFFFFFFFFFFFFFFFFFFFFFFFFF AND MUL OR SWAP1 SSTORE POP POP POP PUSH3 0x207 JUMP JUMPDEST PUSH1 0x0 DUP1 REVERT JUMPDEST PUSH1 0x0 PUSH20 0xFFFFFFFFFFFFFFFFFFFFFFFFFFFFFFFFFFFFFFFF DUP3 AND SWAP1 POP SWAP2 SWAP1 POP JUMP JUMPDEST PUSH1 0x0 PUSH3 0x188 DUP3 PUSH3 0x15B JUMP JUMPDEST SWAP1 POP SWAP2 SWAP1 POP JUMP JUMPDEST PUSH3 0x19A DUP2 PUSH3 0x17B JUMP JUMPDEST DUP2 EQ PUSH3 0x1A6 JUMPI PUSH1 0x0 DUP1 REVERT JUMPDEST POP JUMP JUMPDEST PUSH1 0x0 DUP2 MLOAD SWAP1 POP PUSH3 0x1BA DUP2 PUSH3 0x18F JUMP JUMPDEST SWAP3 SWAP2 POP POP JUMP JUMPDEST PUSH1 0x0 DUP1 PUSH1 0x40 DUP4 DUP6 SUB SLT ISZERO PUSH3 0x1DA JUMPI PUSH3 0x1D9 PUSH3 0x156 JUMP JUMPDEST JUMPDEST PUSH1 0x0 PUSH3 0x1EA DUP6 DUP3 DUP7 ADD PUSH3 0x1A9 JUMP JUMPDEST SWAP3 POP POP PUSH1 0x20 PUSH3 0x1FD DUP6 DUP3 DUP7 ADD PUSH3 0x1A9 JUMP JUMPDEST SWAP2 POP POP SWAP3 POP SWAP3 SWAP1 POP JUMP JUMPDEST PUSH2 0x25F2 DUP1 PUSH3 0x217 PUSH1 0x0 CODECOPY PUSH1 0x0 RETURN INVALID PUSH1 0x80 PUSH1 0x40 MSTORE CALLVALUE DUP1 ISZERO PUSH2 0x10 JUMPI PUSH1 0x0 DUP1 REVERT JUMPDEST POP PUSH1 0x4 CALLDATASIZE LT PUSH2 0x10B JUMPI PUSH1 0x0 CALLDATALOAD PUSH1 0xE0 SHR DUP1 PUSH4 0x837E7CC6 GT PUSH2 0xA2 JUMPI DUP1 PUSH4 0x9D76EA58 GT PUSH2 0x71 JUMPI DUP1 PUSH4 0x9D76EA58 EQ PUSH2 0x29E JUMPI DUP1 PUSH4 0xA0E2EF69 EQ PUSH2 0x2BC JUMPI DUP1 PUSH4 0xC137D643 EQ PUSH2 0x2EC JUMPI DUP1 PUSH4 0xC3E5ED73 EQ PUSH2 0x31C JUMPI DUP1 PUSH4 0xF88D6732 EQ PUSH2 0x338 JUMPI PUSH2 0x10B JUMP JUMPDEST DUP1 PUSH4 0x837E7CC6 EQ PUSH2 0x228 JUMPI DUP1 PUSH4 0x893D20E8 EQ PUSH2 0x232 JUMPI DUP1 PUSH4 0x89A5B229 EQ PUSH2 0x250 JUMPI DUP1 PUSH4 0x8DA5CB5B EQ PUSH2 0x280 JUMPI PUSH2 0x10B JUMP JUMPDEST DUP1 PUSH4 0x4251EA3C GT PUSH2 0xDE JUMPI DUP1 PUSH4 0x4251EA3C EQ PUSH2 0x186 JUMPI DUP1 PUSH4 0x59097195 EQ PUSH2 0x1BE JUMPI DUP1 PUSH4 0x5BA40C2E EQ PUSH2 0x1C8 JUMPI DUP1 PUSH4 0x6D30A29D EQ PUSH2 0x1F8 JUMPI PUSH2 0x10B JUMP JUMPDEST DUP1 PUSH4 0x2911982E EQ PUSH2 0x110 JUMPI DUP1 PUSH4 0x334E4FF5 EQ PUSH2 0x140 JUMPI DUP1 PUSH4 0x3851660F EQ PUSH2 0x14A JUMPI DUP1 PUSH4 0x390784B1 EQ PUSH2 0x168 JUMPI JUMPDEST PUSH1 0x0 DUP1 REVERT JUMPDEST PUSH2 0x12A PUSH1 0x4 DUP1 CALLDATASIZE SUB DUP2 ADD SWAP1 PUSH2 0x125 SWAP2 SWAP1 PUSH2 0x1ABC JUMP JUMPDEST PUSH2 0x368 JUMP JUMPDEST PUSH1 0x40 MLOAD PUSH2 0x137 SWAP2 SWAP1 PUSH2 0x1B02 JUMP JUMPDEST PUSH1 0x40 MLOAD DUP1 SWAP2 SUB SWAP1 RETURN JUMPDEST PUSH2 0x148 PUSH2 0x40D JUMP JUMPDEST STOP JUMPDEST PUSH2 0x152 PUSH2 0x5EA JUMP JUMPDEST PUSH1 0x40 MLOAD PUSH2 0x15F SWAP2 SWAP1 PUSH2 0x1BDB JUMP JUMPDEST PUSH1 0x40 MLOAD DUP1 SWAP2 SUB SWAP1 RETURN JUMPDEST PUSH2 0x170 PUSH2 0x642 JUMP JUMPDEST PUSH1 0x40 MLOAD PUSH2 0x17D SWAP2 SWAP1 PUSH2 0x1B02 JUMP JUMPDEST PUSH1 0x40 MLOAD DUP1 SWAP2 SUB SWAP1 RETURN JUMPDEST PUSH2 0x1A0 PUSH1 0x4 DUP1 CALLDATASIZE SUB DUP2 ADD SWAP1 PUSH2 0x19B SWAP2 SWAP1 PUSH2 0x1ABC JUMP JUMPDEST PUSH2 0x64F JUMP JUMPDEST PUSH1 0x40 MLOAD PUSH2 0x1B5 SWAP10 SWAP9 SWAP8 SWAP7 SWAP6 SWAP5 SWAP4 SWAP3 SWAP2 SWAP1 PUSH2 0x1BFD JUMP JUMPDEST PUSH1 0x40 MLOAD DUP1 SWAP2 SUB SWAP1 RETURN JUMPDEST PUSH2 0x1C6 PUSH2 0x69D JUMP JUMPDEST STOP JUMPDEST PUSH2 0x1E2 PUSH1 0x4 DUP1 CALLDATASIZE SUB DUP2 ADD SWAP1 PUSH2 0x1DD SWAP2 SWAP1 PUSH2 0x1CB6 JUMP JUMPDEST PUSH2 0x7CC JUMP JUMPDEST PUSH1 0x40 MLOAD PUSH2 0x1EF SWAP2 SWAP1 PUSH2 0x1B02 JUMP JUMPDEST PUSH1 0x40 MLOAD DUP1 SWAP2 SUB SWAP1 RETURN JUMPDEST PUSH2 0x212 PUSH1 0x4 DUP1 CALLDATASIZE SUB DUP2 ADD SWAP1 PUSH2 0x20D SWAP2 SWAP1 PUSH2 0x1ABC JUMP JUMPDEST PUSH2 0x7F0 JUMP JUMPDEST PUSH1 0x40 MLOAD PUSH2 0x21F SWAP2 SWAP1 PUSH2 0x1B02 JUMP JUMPDEST PUSH1 0x40 MLOAD DUP1 SWAP2 SUB SWAP1 RETURN JUMPDEST PUSH2 0x230 PUSH2 0x808 JUMP JUMPDEST STOP JUMPDEST PUSH2 0x23A PUSH2 0xD20 JUMP JUMPDEST PUSH1 0x40 MLOAD PUSH2 0x247 SWAP2 SWAP1 PUSH2 0x1CF2 JUMP JUMPDEST PUSH1 0x40 MLOAD DUP1 SWAP2 SUB SWAP1 RETURN JUMPDEST PUSH2 0x26A PUSH1 0x4 DUP1 CALLDATASIZE SUB DUP2 ADD SWAP1 PUSH2 0x265 SWAP2 SWAP1 PUSH2 0x1CB6 JUMP JUMPDEST PUSH2 0xD49 JUMP JUMPDEST PUSH1 0x40 MLOAD PUSH2 0x277 SWAP2 SWAP1 PUSH2 0x1CF2 JUMP JUMPDEST PUSH1 0x40 MLOAD DUP1 SWAP2 SUB SWAP1 RETURN JUMPDEST PUSH2 0x288 PUSH2 0xD88 JUMP JUMPDEST PUSH1 0x40 MLOAD PUSH2 0x295 SWAP2 SWAP1 PUSH2 0x1CF2 JUMP JUMPDEST PUSH1 0x40 MLOAD DUP1 SWAP2 SUB SWAP1 RETURN JUMPDEST PUSH2 0x2A6 PUSH2 0xDAC JUMP JUMPDEST PUSH1 0x40 MLOAD PUSH2 0x2B3 SWAP2 SWAP1 PUSH2 0x1CF2 JUMP JUMPDEST PUSH1 0x40 MLOAD DUP1 SWAP2 SUB SWAP1 RETURN JUMPDEST PUSH2 0x2D6 PUSH1 0x4 DUP1 CALLDATASIZE SUB DUP2 ADD SWAP1 PUSH2 0x2D1 SWAP2 SWAP1 PUSH2 0x1ABC JUMP JUMPDEST PUSH2 0xDD2 JUMP JUMPDEST PUSH1 0x40 MLOAD PUSH2 0x2E3 SWAP2 SWAP1 PUSH2 0x1B02 JUMP JUMPDEST PUSH1 0x40 MLOAD DUP1 SWAP2 SUB SWAP1 RETURN JUMPDEST PUSH2 0x306 PUSH1 0x4 DUP1 CALLDATASIZE SUB DUP2 ADD SWAP1 PUSH2 0x301 SWAP2 SWAP1 PUSH2 0x1ABC JUMP JUMPDEST PUSH2 0xE89 JUMP JUMPDEST PUSH1 0x40 MLOAD PUSH2 0x313 SWAP2 SWAP1 PUSH2 0x1DC4 JUMP JUMPDEST PUSH1 0x40 MLOAD DUP1 SWAP2 SUB SWAP1 RETURN JUMPDEST PUSH2 0x336 PUSH1 0x4 DUP1 CALLDATASIZE SUB DUP2 ADD SWAP1 PUSH2 0x331 SWAP2 SWAP1 PUSH2 0x1F39 JUMP JUMPDEST PUSH2 0xFAB JUMP JUMPDEST STOP JUMPDEST PUSH2 0x352 PUSH1 0x4 DUP1 CALLDATASIZE SUB DUP2 ADD SWAP1 PUSH2 0x34D SWAP2 SWAP1 PUSH2 0x1CB6 JUMP JUMPDEST PUSH2 0x14A4 JUMP JUMPDEST PUSH1 0x40 MLOAD PUSH2 0x35F SWAP2 SWAP1 PUSH2 0x1B02 JUMP JUMPDEST PUSH1 0x40 MLOAD DUP1 SWAP2 SUB SWAP1 RETURN JUMPDEST PUSH1 0x0 PUSH1 0x6 PUSH1 0x0 SWAP1 SLOAD SWAP1 PUSH2 0x100 EXP SWAP1 DIV PUSH20 0xFFFFFFFFFFFFFFFFFFFFFFFFFFFFFFFFFFFFFFFF AND PUSH20 0xFFFFFFFFFFFFFFFFFFFFFFFFFFFFFFFFFFFFFFFF AND PUSH4 0x70A08231 DUP4 PUSH1 0x40 MLOAD DUP3 PUSH4 0xFFFFFFFF AND PUSH1 0xE0 SHL DUP2 MSTORE PUSH1 0x4 ADD PUSH2 0x3C5 SWAP2 SWAP1 PUSH2 0x1CF2 JUMP JUMPDEST PUSH1 0x20 PUSH1 0x40 MLOAD DUP1 DUP4 SUB DUP2 DUP7 GAS STATICCALL ISZERO DUP1 ISZERO PUSH2 0x3E2 JUMPI RETURNDATASIZE PUSH1 0x0 DUP1 RETURNDATACOPY RETURNDATASIZE PUSH1 0x0 REVERT JUMPDEST POP POP POP POP PUSH1 0x40 MLOAD RETURNDATASIZE PUSH1 0x1F NOT PUSH1 0x1F DUP3 ADD AND DUP3 ADD DUP1 PUSH1 0x40 MSTORE POP DUP2 ADD SWAP1 PUSH2 0x406 SWAP2 SWAP1 PUSH2 0x1F97 JUMP JUMPDEST SWAP1 POP SWAP2 SWAP1 POP JUMP JUMPDEST PUSH1 0x0 PUSH2 0x418 CALLER PUSH2 0xDD2 JUMP JUMPDEST SWAP1 POP PUSH1 0x6 PUSH1 0x0 SWAP1 SLOAD SWAP1 PUSH2 0x100 EXP SWAP1 DIV PUSH20 0xFFFFFFFFFFFFFFFFFFFFFFFFFFFFFFFFFFFFFFFF AND PUSH20 0xFFFFFFFFFFFFFFFFFFFFFFFFFFFFFFFFFFFFFFFF AND PUSH4 0x22FC88B PUSH1 0x1 PUSH1 0x0 SWAP1 SLOAD SWAP1 PUSH2 0x100 EXP SWAP1 DIV PUSH20 0xFFFFFFFFFFFFFFFFFFFFFFFFFFFFFFFFFFFFFFFF AND DUP4 PUSH1 0x40 MLOAD DUP4 PUSH4 0xFFFFFFFF AND PUSH1 0xE0 SHL DUP2 MSTORE PUSH1 0x4 ADD PUSH2 0x499 SWAP3 SWAP2 SWAP1 PUSH2 0x1FC4 JUMP JUMPDEST PUSH1 0x20 PUSH1 0x40 MLOAD DUP1 DUP4 SUB DUP2 PUSH1 0x0 DUP8 GAS CALL ISZERO DUP1 ISZERO PUSH2 0x4B8 JUMPI RETURNDATASIZE PUSH1 0x0 DUP1 RETURNDATACOPY RETURNDATASIZE PUSH1 0x0 REVERT JUMPDEST POP POP POP POP PUSH1 0x40 MLOAD RETURNDATASIZE PUSH1 0x1F NOT PUSH1 0x1F DUP3 ADD AND DUP3 ADD DUP1 PUSH1 0x40 MSTORE POP DUP2 ADD SWAP1 PUSH2 0x4DC SWAP2 SWAP1 PUSH2 0x2025 JUMP JUMPDEST POP PUSH1 0x6 PUSH1 0x0 SWAP1 SLOAD SWAP1 PUSH2 0x100 EXP SWAP1 DIV PUSH20 0xFFFFFFFFFFFFFFFFFFFFFFFFFFFFFFFFFFFFFFFF AND PUSH20 0xFFFFFFFFFFFFFFFFFFFFFFFFFFFFFFFFFFFFFFFF AND PUSH4 0x23B872DD PUSH1 0x1 PUSH1 0x0 SWAP1 SLOAD SWAP1 PUSH2 0x100 EXP SWAP1 DIV PUSH20 0xFFFFFFFFFFFFFFFFFFFFFFFFFFFFFFFFFFFFFFFF AND CALLER DUP5 PUSH1 0x40 MLOAD DUP5 PUSH4 0xFFFFFFFF AND PUSH1 0xE0 SHL DUP2 MSTORE PUSH1 0x4 ADD PUSH2 0x55E SWAP4 SWAP3 SWAP2 SWAP1 PUSH2 0x2052 JUMP JUMPDEST PUSH1 0x20 PUSH1 0x40 MLOAD DUP1 DUP4 SUB DUP2 PUSH1 0x0 DUP8 GAS CALL ISZERO DUP1 ISZERO PUSH2 0x57D JUMPI RETURNDATASIZE PUSH1 0x0 DUP1 RETURNDATACOPY RETURNDATASIZE PUSH1 0x0 REVERT JUMPDEST POP POP POP POP PUSH1 0x40 MLOAD RETURNDATASIZE PUSH1 0x1F NOT PUSH1 0x1F DUP3 ADD AND DUP3 ADD DUP1 PUSH1 0x40 MSTORE POP DUP2 ADD SWAP1 PUSH2 0x5A1 SWAP2 SWAP1 PUSH2 0x2025 JUMP JUMPDEST POP PUSH1 0x0 PUSH1 0x4 PUSH1 0x0 CALLER PUSH20 0xFFFFFFFFFFFFFFFFFFFFFFFFFFFFFFFFFFFFFFFF AND PUSH20 0xFFFFFFFFFFFFFFFFFFFFFFFFFFFFFFFFFFFFFFFF AND DUP2 MSTORE PUSH1 0x20 ADD SWAP1 DUP2 MSTORE PUSH1 0x20 ADD PUSH1 0x0 KECCAK256 DUP2 SWAP1 SSTORE POP POP JUMP JUMPDEST PUSH1 0x60 PUSH1 0x5 DUP1 SLOAD DUP1 PUSH1 0x20 MUL PUSH1 0x20 ADD PUSH1 0x40 MLOAD SWAP1 DUP2 ADD PUSH1 0x40 MSTORE DUP1 SWAP3 SWAP2 SWAP1 DUP2 DUP2 MSTORE PUSH1 0x20 ADD DUP3 DUP1 SLOAD DUP1 ISZERO PUSH2 0x638 JUMPI PUSH1 0x20 MUL DUP3 ADD SWAP2 SWAP1 PUSH1 0x0 MSTORE PUSH1 0x20 PUSH1 0x0 KECCAK256 SWAP1 JUMPDEST DUP2 SLOAD DUP2 MSTORE PUSH1 0x20 ADD SWAP1 PUSH1 0x1 ADD SWAP1 DUP1 DUP4 GT PUSH2 0x624 JUMPI JUMPDEST POP POP POP POP POP SWAP1 POP SWAP1 JUMP JUMPDEST PUSH1 0x0 PUSH1 0x5 DUP1 SLOAD SWAP1 POP SWAP1 POP SWAP1 JUMP JUMPDEST PUSH1 0x3 PUSH1 0x20 MSTORE DUP1 PUSH1 0x0 MSTORE PUSH1 0x40 PUSH1 0x0 KECCAK256 PUSH1 0x0 SWAP2 POP SWAP1 POP DUP1 PUSH1 0x0 ADD SLOAD SWAP1 DUP1 PUSH1 0x1 ADD SLOAD SWAP1 DUP1 PUSH1 0x2 ADD SLOAD SWAP1 DUP1 PUSH1 0x3 ADD SLOAD SWAP1 DUP1 PUSH1 0x4 ADD SLOAD SWAP1 DUP1 PUSH1 0x5 ADD SLOAD SWAP1 DUP1 PUSH1 0x6 ADD SLOAD SWAP1 DUP1 PUSH1 0x7 ADD SLOAD SWAP1 DUP1 PUSH1 0x8 ADD SLOAD SWAP1 POP DUP10 JUMP JUMPDEST PUSH1 0x0 DUP1 SLOAD SWAP1 PUSH2 0x100 EXP SWAP1 DIV PUSH20 0xFFFFFFFFFFFFFFFFFFFFFFFFFFFFFFFFFFFFFFFF AND PUSH20 0xFFFFFFFFFFFFFFFFFFFFFFFFFFFFFFFFFFFFFFFF AND CALLER PUSH20 0xFFFFFFFFFFFFFFFFFFFFFFFFFFFFFFFFFFFFFFFF AND EQ PUSH2 0x72B JUMPI PUSH1 0x40 MLOAD PUSH32 0x8C379A000000000000000000000000000000000000000000000000000000000 DUP2 MSTORE PUSH1 0x4 ADD PUSH2 0x722 SWAP1 PUSH2 0x210C JUMP JUMPDEST PUSH1 0x40 MLOAD DUP1 SWAP2 SUB SWAP1 REVERT JUMPDEST PUSH1 0x0 PUSH1 0x7 PUSH1 0x0 SWAP1 SLOAD SWAP1 PUSH2 0x100 EXP SWAP1 DIV PUSH20 0xFFFFFFFFFFFFFFFFFFFFFFFFFFFFFFFFFFFFFFFF AND SWAP1 POP DUP1 PUSH20 0xFFFFFFFFFFFFFFFFFFFFFFFFFFFFFFFFFFFFFFFF AND PUSH4 0xE0C86289 PUSH1 0x40 MLOAD DUP2 PUSH4 0xFFFFFFFF AND PUSH1 0xE0 SHL DUP2 MSTORE PUSH1 0x4 ADD PUSH1 0x20 PUSH1 0x40 MLOAD DUP1 DUP4 SUB DUP2 PUSH1 0x0 DUP8 GAS CALL ISZERO DUP1 ISZERO PUSH2 0x79F JUMPI RETURNDATASIZE PUSH1 0x0 DUP1 RETURNDATACOPY RETURNDATASIZE PUSH1 0x0 REVERT JUMPDEST POP POP POP POP PUSH1 0x40 MLOAD RETURNDATASIZE PUSH1 0x1F NOT PUSH1 0x1F DUP3 ADD AND DUP3 ADD DUP1 PUSH1 0x40 MSTORE POP DUP2 ADD SWAP1 PUSH2 0x7C3 SWAP2 SWAP1 PUSH2 0x1F97 JUMP JUMPDEST PUSH1 0x8 DUP2 SWAP1 SSTORE POP POP JUMP JUMPDEST PUSH1 0x9 DUP2 DUP2 SLOAD DUP2 LT PUSH2 0x7DC JUMPI PUSH1 0x0 DUP1 REVERT JUMPDEST SWAP1 PUSH1 0x0 MSTORE PUSH1 0x20 PUSH1 0x0 KECCAK256 ADD PUSH1 0x0 SWAP2 POP SWAP1 POP SLOAD DUP2 JUMP JUMPDEST PUSH1 0x4 PUSH1 0x20 MSTORE DUP1 PUSH1 0x0 MSTORE PUSH1 0x40 PUSH1 0x0 KECCAK256 PUSH1 0x0 SWAP2 POP SWAP1 POP SLOAD DUP2 JUMP JUMPDEST PUSH1 0x0 DUP1 SLOAD SWAP1 PUSH2 0x100 EXP SWAP1 DIV PUSH20 0xFFFFFFFFFFFFFFFFFFFFFFFFFFFFFFFFFFFFFFFF AND PUSH20 0xFFFFFFFFFFFFFFFFFFFFFFFFFFFFFFFFFFFFFFFF AND CALLER PUSH20 0xFFFFFFFFFFFFFFFFFFFFFFFFFFFFFFFFFFFFFFFF AND EQ PUSH2 0x896 JUMPI PUSH1 0x40 MLOAD PUSH32 0x8C379A000000000000000000000000000000000000000000000000000000000 DUP2 MSTORE PUSH1 0x4 ADD PUSH2 0x88D SWAP1 PUSH2 0x210C JUMP JUMPDEST PUSH1 0x40 MLOAD DUP1 SWAP2 SUB SWAP1 REVERT JUMPDEST PUSH2 0x89E PUSH2 0x69D JUMP JUMPDEST PUSH1 0x0 PUSH1 0x5 DUP1 SLOAD SWAP1 POP EQ PUSH2 0x8E6 JUMPI PUSH1 0x40 MLOAD PUSH32 0x8C379A000000000000000000000000000000000000000000000000000000000 DUP2 MSTORE PUSH1 0x4 ADD PUSH2 0x8DD SWAP1 PUSH2 0x2178 JUMP JUMPDEST PUSH1 0x40 MLOAD DUP1 SWAP2 SUB SWAP1 REVERT JUMPDEST PUSH1 0x0 PUSH1 0x6 PUSH8 0xFFFFFFFFFFFFFFFF DUP2 GT ISZERO PUSH2 0x903 JUMPI PUSH2 0x902 PUSH2 0x1DF6 JUMP JUMPDEST JUMPDEST PUSH1 0x40 MLOAD SWAP1 DUP1 DUP3 MSTORE DUP1 PUSH1 0x20 MUL PUSH1 0x20 ADD DUP3 ADD PUSH1 0x40 MSTORE DUP1 ISZERO PUSH2 0x931 JUMPI DUP2 PUSH1 0x20 ADD PUSH1 0x20 DUP3 MUL DUP1 CALLDATASIZE DUP4 CALLDATACOPY DUP1 DUP3 ADD SWAP2 POP POP SWAP1 POP JUMPDEST POP SWAP1 POP PUSH1 0x0 JUMPDEST PUSH1 0x6 DUP2 LT ISZERO PUSH2 0x996 JUMPI PUSH1 0xA PUSH1 0x8 SLOAD PUSH2 0x94F SWAP2 SWAP1 PUSH2 0x21C7 JUMP JUMPDEST DUP3 DUP3 DUP2 MLOAD DUP2 LT PUSH2 0x962 JUMPI PUSH2 0x961 PUSH2 0x21F8 JUMP JUMPDEST JUMPDEST PUSH1 0x20 MUL PUSH1 0x20 ADD ADD DUP2 DUP2 MSTORE POP POP PUSH1 0xA PUSH1 0x8 SLOAD PUSH2 0x97D SWAP2 SWAP1 PUSH2 0x2256 JUMP JUMPDEST PUSH1 0x8 DUP2 SWAP1 SSTORE POP DUP1 DUP1 PUSH2 0x98E SWAP1 PUSH2 0x2287 JUMP JUMPDEST SWAP2 POP POP PUSH2 0x937 JUMP JUMPDEST POP PUSH1 0x0 DUP2 PUSH1 0x5 DUP2 MLOAD DUP2 LT PUSH2 0x9AD JUMPI PUSH2 0x9AC PUSH2 0x21F8 JUMP JUMPDEST JUMPDEST PUSH1 0x20 MUL PUSH1 0x20 ADD ADD MLOAD DUP3 PUSH1 0x4 DUP2 MLOAD DUP2 LT PUSH2 0x9C9 JUMPI PUSH2 0x9C8 PUSH2 0x21F8 JUMP JUMPDEST JUMPDEST PUSH1 0x20 MUL PUSH1 0x20 ADD ADD MLOAD DUP4 PUSH1 0x3 DUP2 MLOAD DUP2 LT PUSH2 0x9E5 JUMPI PUSH2 0x9E4 PUSH2 0x21F8 JUMP JUMPDEST JUMPDEST PUSH1 0x20 MUL PUSH1 0x20 ADD ADD MLOAD DUP5 PUSH1 0x2 DUP2 MLOAD DUP2 LT PUSH2 0xA01 JUMPI PUSH2 0xA00 PUSH2 0x21F8 JUMP JUMPDEST JUMPDEST PUSH1 0x20 MUL PUSH1 0x20 ADD ADD MLOAD DUP6 PUSH1 0x1 DUP2 MLOAD DUP2 LT PUSH2 0xA1D JUMPI PUSH2 0xA1C PUSH2 0x21F8 JUMP JUMPDEST JUMPDEST PUSH1 0x20 MUL PUSH1 0x20 ADD ADD MLOAD DUP7 PUSH1 0x0 DUP2 MLOAD DUP2 LT PUSH2 0xA39 JUMPI PUSH2 0xA38 PUSH2 0x21F8 JUMP JUMPDEST JUMPDEST PUSH1 0x20 MUL PUSH1 0x20 ADD ADD MLOAD PUSH2 0xA4B SWAP2 SWAP1 PUSH2 0x22CF JUMP JUMPDEST PUSH2 0xA55 SWAP2 SWAP1 PUSH2 0x22CF JUMP JUMPDEST PUSH2 0xA5F SWAP2 SWAP1 PUSH2 0x22CF JUMP JUMPDEST PUSH2 0xA69 SWAP2 SWAP1 PUSH2 0x22CF JUMP JUMPDEST PUSH2 0xA73 SWAP2 SWAP1 PUSH2 0x22CF JUMP JUMPDEST SWAP1 POP PUSH1 0x0 DUP2 PUSH8 0xFFFFFFFFFFFFFFFF DUP2 GT ISZERO PUSH2 0xA91 JUMPI PUSH2 0xA90 PUSH2 0x1DF6 JUMP JUMPDEST JUMPDEST PUSH1 0x40 MLOAD SWAP1 DUP1 DUP3 MSTORE DUP1 PUSH1 0x20 MUL PUSH1 0x20 ADD DUP3 ADD PUSH1 0x40 MSTORE DUP1 ISZERO PUSH2 0xABF JUMPI DUP2 PUSH1 0x20 ADD PUSH1 0x20 DUP3 MUL DUP1 CALLDATASIZE DUP4 CALLDATACOPY DUP1 DUP3 ADD SWAP2 POP POP SWAP1 POP JUMPDEST POP SWAP1 POP PUSH1 0x0 DUP1 JUMPDEST PUSH1 0x6 DUP2 LT ISZERO PUSH2 0xB56 JUMPI PUSH1 0x0 JUMPDEST DUP6 DUP3 DUP2 MLOAD DUP2 LT PUSH2 0xAE5 JUMPI PUSH2 0xAE4 PUSH2 0x21F8 JUMP JUMPDEST JUMPDEST PUSH1 0x20 MUL PUSH1 0x20 ADD ADD MLOAD DUP2 LT ISZERO PUSH2 0xB42 JUMPI PUSH1 0x1 DUP3 PUSH2 0xB01 SWAP2 SWAP1 PUSH2 0x22CF JUMP JUMPDEST DUP5 DUP5 DUP2 MLOAD DUP2 LT PUSH2 0xB14 JUMPI PUSH2 0xB13 PUSH2 0x21F8 JUMP JUMPDEST JUMPDEST PUSH1 0x20 MUL PUSH1 0x20 ADD ADD DUP2 DUP2 MSTORE POP POP PUSH1 0x1 DUP4 PUSH2 0xB2D SWAP2 SWAP1 PUSH2 0x22CF JUMP JUMPDEST SWAP3 POP DUP1 DUP1 PUSH2 0xB3A SWAP1 PUSH2 0x2287 JUMP JUMPDEST SWAP2 POP POP PUSH2 0xAD2 JUMP JUMPDEST POP DUP1 DUP1 PUSH2 0xB4E SWAP1 PUSH2 0x2287 JUMP JUMPDEST SWAP2 POP POP PUSH2 0xAC6 JUMP JUMPDEST POP DUP2 PUSH1 0x9 SWAP1 DUP1 MLOAD SWAP1 PUSH1 0x20 ADD SWAP1 PUSH2 0xB6D SWAP3 SWAP2 SWAP1 PUSH2 0x1994 JUMP JUMPDEST POP PUSH1 0x0 DUP1 PUSH20 0x0 PUSH4 0x66E2463D PUSH1 0x8 SLOAD DUP8 PUSH1 0x40 MLOAD DUP4 PUSH4 0xFFFFFFFF AND PUSH1 0xE0 SHL DUP2 MSTORE PUSH1 0x4 ADD PUSH2 0xBAC SWAP3 SWAP2 SWAP1 PUSH2 0x2312 JUMP JUMPDEST PUSH1 0x40 DUP1 MLOAD DUP1 DUP4 SUB DUP2 DUP7 GAS DELEGATECALL ISZERO DUP1 ISZERO PUSH2 0xBC8 JUMPI RETURNDATASIZE PUSH1 0x0 DUP1 RETURNDATACOPY RETURNDATASIZE PUSH1 0x0 REVERT JUMPDEST POP POP POP POP PUSH1 0x40 MLOAD RETURNDATASIZE PUSH1 0x1F NOT PUSH1 0x1F DUP3 ADD AND DUP3 ADD DUP1 PUSH1 0x40 MSTORE POP DUP2 ADD SWAP1 PUSH2 0xBEC SWAP2 SWAP1 PUSH2 0x233B JUMP JUMPDEST DUP1 SWAP3 POP DUP2 SWAP4 POP POP POP PUSH1 0x5 PUSH1 0x9 DUP4 DUP2 SLOAD DUP2 LT PUSH2 0xC0A JUMPI PUSH2 0xC09 PUSH2 0x21F8 JUMP JUMPDEST JUMPDEST SWAP1 PUSH1 0x0 MSTORE PUSH1 0x20 PUSH1 0x0 KECCAK256 ADD SLOAD SWAP1 DUP1 PUSH1 0x1 DUP2 SLOAD ADD DUP1 DUP3 SSTORE DUP1 SWAP2 POP POP PUSH1 0x1 SWAP1 SUB SWAP1 PUSH1 0x0 MSTORE PUSH1 0x20 PUSH1 0x0 KECCAK256 ADD PUSH1 0x0 SWAP1 SWAP2 SWAP1 SWAP2 SWAP1 SWAP2 POP SSTORE PUSH1 0x5 PUSH1 0x9 DUP3 DUP2 SLOAD DUP2 LT PUSH2 0xC51 JUMPI PUSH2 0xC50 PUSH2 0x21F8 JUMP JUMPDEST JUMPDEST SWAP1 PUSH1 0x0 MSTORE PUSH1 0x20 PUSH1 0x0 KECCAK256 ADD SLOAD SWAP1 DUP1 PUSH1 0x1 DUP2 SLOAD ADD DUP1 DUP3 SSTORE DUP1 SWAP2 POP POP PUSH1 0x1 SWAP1 SUB SWAP1 PUSH1 0x0 MSTORE PUSH1 0x20 PUSH1 0x0 KECCAK256 ADD PUSH1 0x0 SWAP1 SWAP2 SWAP1 SWAP2 SWAP1 SWAP2 POP SSTORE CALLER PUSH20 0xFFFFFFFFFFFFFFFFFFFFFFFFFFFFFFFFFFFFFFFF AND PUSH32 0x9F3D1596F73D6658EA5EE6155F974B2A6B43833DAB39A0CA2E14656A57330FE8 PUSH1 0x5 PUSH1 0x0 DUP2 SLOAD DUP2 LT PUSH2 0xCCF JUMPI PUSH2 0xCCE PUSH2 0x21F8 JUMP JUMPDEST JUMPDEST SWAP1 PUSH1 0x0 MSTORE PUSH1 0x20 PUSH1 0x0 KECCAK256 ADD SLOAD PUSH1 0x5 PUSH1 0x1 DUP2 SLOAD DUP2 LT PUSH2 0xCEF JUMPI PUSH2 0xCEE PUSH2 0x21F8 JUMP JUMPDEST JUMPDEST SWAP1 PUSH1 0x0 MSTORE PUSH1 0x20 PUSH1 0x0 KECCAK256 ADD SLOAD PUSH1 0x40 MLOAD PUSH2 0xD08 SWAP3 SWAP2 SWAP1 PUSH2 0x237B JUMP JUMPDEST PUSH1 0x40 MLOAD DUP1 SWAP2 SUB SWAP1 LOG2 PUSH2 0xD18 PUSH2 0x14C8 JUMP JUMPDEST POP POP POP POP POP POP JUMP JUMPDEST PUSH1 0x0 DUP1 PUSH1 0x0 SWAP1 SLOAD SWAP1 PUSH2 0x100 EXP SWAP1 DIV PUSH20 0xFFFFFFFFFFFFFFFFFFFFFFFFFFFFFFFFFFFFFFFF AND SWAP1 POP SWAP1 JUMP JUMPDEST PUSH1 0x2 DUP2 DUP2 SLOAD DUP2 LT PUSH2 0xD59 JUMPI PUSH1 0x0 DUP1 REVERT JUMPDEST SWAP1 PUSH1 0x0 MSTORE PUSH1 0x20 PUSH1 0x0 KECCAK256 ADD PUSH1 0x0 SWAP2 POP SLOAD SWAP1 PUSH2 0x100 EXP SWAP1 DIV PUSH20 0xFFFFFFFFFFFFFFFFFFFFFFFFFFFFFFFFFFFFFFFF AND DUP2 JUMP JUMPDEST PUSH1 0x0 DUP1 SLOAD SWAP1 PUSH2 0x100 EXP SWAP1 DIV PUSH20 0xFFFFFFFFFFFFFFFFFFFFFFFFFFFFFFFFFFFFFFFF AND DUP2 JUMP JUMPDEST PUSH1 0x1 PUSH1 0x0 SWAP1 SLOAD SWAP1 PUSH2 0x100 EXP SWAP1 DIV PUSH20 0xFFFFFFFFFFFFFFFFFFFFFFFFFFFFFFFFFFFFFFFF AND DUP2 JUMP JUMPDEST PUSH1 0x0 DUP2 PUSH20 0xFFFFFFFFFFFFFFFFFFFFFFFFFFFFFFFFFFFFFFFF AND CALLER PUSH20 0xFFFFFFFFFFFFFFFFFFFFFFFFFFFFFFFFFFFFFFFF AND EQ PUSH2 0xE42 JUMPI PUSH1 0x40 MLOAD PUSH32 0x8C379A000000000000000000000000000000000000000000000000000000000 DUP2 MSTORE PUSH1 0x4 ADD PUSH2 0xE39 SWAP1 PUSH2 0x2416 JUMP JUMPDEST PUSH1 0x40 MLOAD DUP1 SWAP2 SUB SWAP1 REVERT JUMPDEST PUSH1 0x4 PUSH1 0x0 DUP4 PUSH20 0xFFFFFFFFFFFFFFFFFFFFFFFFFFFFFFFFFFFFFFFF AND PUSH20 0xFFFFFFFFFFFFFFFFFFFFFFFFFFFFFFFFFFFFFFFF AND DUP2 MSTORE PUSH1 0x20 ADD SWAP1 DUP2 MSTORE PUSH1 0x20 ADD PUSH1 0x0 KECCAK256 SLOAD SWAP1 POP SWAP2 SWAP1 POP JUMP JUMPDEST PUSH2 0xE91 PUSH2 0x19E1 JUMP JUMPDEST CALLER PUSH20 0xFFFFFFFFFFFFFFFFFFFFFFFFFFFFFFFFFFFFFFFF AND DUP3 PUSH20 0xFFFFFFFFFFFFFFFFFFFFFFFFFFFFFFFFFFFFFFFF AND EQ PUSH2 0xEFF JUMPI PUSH1 0x40 MLOAD PUSH32 0x8C379A000000000000000000000000000000000000000000000000000000000 DUP2 MSTORE PUSH1 0x4 ADD PUSH2 0xEF6 SWAP1 PUSH2 0x2482 JUMP JUMPDEST PUSH1 0x40 MLOAD DUP1 SWAP2 SUB SWAP1 REVERT JUMPDEST PUSH1 0x3 PUSH1 0x0 DUP4 PUSH20 0xFFFFFFFFFFFFFFFFFFFFFFFFFFFFFFFFFFFFFFFF AND PUSH20 0xFFFFFFFFFFFFFFFFFFFFFFFFFFFFFFFFFFFFFFFF AND DUP2 MSTORE PUSH1 0x20 ADD SWAP1 DUP2 MSTORE PUSH1 0x20 ADD PUSH1 0x0 KECCAK256 PUSH1 0x40 MLOAD DUP1 PUSH2 0x120 ADD PUSH1 0x40 MSTORE SWAP1 DUP2 PUSH1 0x0 DUP3 ADD SLOAD DUP2 MSTORE PUSH1 0x20 ADD PUSH1 0x1 DUP3 ADD SLOAD DUP2 MSTORE PUSH1 0x20 ADD PUSH1 0x2 DUP3 ADD SLOAD DUP2 MSTORE PUSH1 0x20 ADD PUSH1 0x3 DUP3 ADD SLOAD DUP2 MSTORE PUSH1 0x20 ADD PUSH1 0x4 DUP3 ADD SLOAD DUP2 MSTORE PUSH1 0x20 ADD PUSH1 0x5 DUP3 ADD SLOAD DUP2 MSTORE PUSH1 0x20 ADD PUSH1 0x6 DUP3 ADD SLOAD DUP2 MSTORE PUSH1 0x20 ADD PUSH1 0x7 DUP3 ADD SLOAD DUP2 MSTORE PUSH1 0x20 ADD PUSH1 0x8 DUP3 ADD SLOAD DUP2 MSTORE POP POP SWAP1 POP SWAP2 SWAP1 POP JUMP JUMPDEST PUSH1 0x0 DUP2 PUSH1 0x8 DUP2 MLOAD DUP2 LT PUSH2 0xFC1 JUMPI PUSH2 0xFC0 PUSH2 0x21F8 JUMP JUMPDEST JUMPDEST PUSH1 0x20 MUL PUSH1 0x20 ADD ADD MLOAD DUP3 PUSH1 0x5 DUP2 MLOAD DUP2 LT PUSH2 0xFDD JUMPI PUSH2 0xFDC PUSH2 0x21F8 JUMP JUMPDEST JUMPDEST PUSH1 0x20 MUL PUSH1 0x20 ADD ADD MLOAD DUP4 PUSH1 0x3 DUP2 MLOAD DUP2 LT PUSH2 0xFF9 JUMPI PUSH2 0xFF8 PUSH2 0x21F8 JUMP JUMPDEST JUMPDEST PUSH1 0x20 MUL PUSH1 0x20 ADD ADD MLOAD DUP5 PUSH1 0x1 DUP2 MLOAD DUP2 LT PUSH2 0x1015 JUMPI PUSH2 0x1014 PUSH2 0x21F8 JUMP JUMPDEST JUMPDEST PUSH1 0x20 MUL PUSH1 0x20 ADD ADD MLOAD PUSH2 0x1027 SWAP2 SWAP1 PUSH2 0x22CF JUMP JUMPDEST PUSH2 0x1031 SWAP2 SWAP1 PUSH2 0x22CF JUMP JUMPDEST PUSH2 0x103B SWAP2 SWAP1 PUSH2 0x22CF JUMP JUMPDEST SWAP1 POP PUSH1 0x6 PUSH1 0x0 SWAP1 SLOAD SWAP1 PUSH2 0x100 EXP SWAP1 DIV PUSH20 0xFFFFFFFFFFFFFFFFFFFFFFFFFFFFFFFFFFFFFFFF AND PUSH20 0xFFFFFFFFFFFFFFFFFFFFFFFFFFFFFFFFFFFFFFFF AND PUSH4 0x22FC88B CALLER DUP4 PUSH1 0x40 MLOAD DUP4 PUSH4 0xFFFFFFFF AND PUSH1 0xE0 SHL DUP2 MSTORE PUSH1 0x4 ADD PUSH2 0x109A SWAP3 SWAP2 SWAP1 PUSH2 0x1FC4 JUMP JUMPDEST PUSH1 0x20 PUSH1 0x40 MLOAD DUP1 DUP4 SUB DUP2 PUSH1 0x0 DUP8 GAS CALL ISZERO DUP1 ISZERO PUSH2 0x10B9 JUMPI RETURNDATASIZE PUSH1 0x0 DUP1 RETURNDATACOPY RETURNDATASIZE PUSH1 0x0 REVERT JUMPDEST POP POP POP POP PUSH1 0x40 MLOAD RETURNDATASIZE PUSH1 0x1F NOT PUSH1 0x1F DUP3 ADD AND DUP3 ADD DUP1 PUSH1 0x40 MSTORE POP DUP2 ADD SWAP1 PUSH2 0x10DD SWAP2 SWAP1 PUSH2 0x2025 JUMP JUMPDEST PUSH2 0x111C JUMPI PUSH1 0x40 MLOAD PUSH32 0x8C379A000000000000000000000000000000000000000000000000000000000 DUP2 MSTORE PUSH1 0x4 ADD PUSH2 0x1113 SWAP1 PUSH2 0x24EE JUMP JUMPDEST PUSH1 0x40 MLOAD DUP1 SWAP2 SUB SWAP1 REVERT JUMPDEST PUSH1 0x6 PUSH1 0x0 SWAP1 SLOAD SWAP1 PUSH2 0x100 EXP SWAP1 DIV PUSH20 0xFFFFFFFFFFFFFFFFFFFFFFFFFFFFFFFFFFFFFFFF AND PUSH20 0xFFFFFFFFFFFFFFFFFFFFFFFFFFFFFFFFFFFFFFFF AND PUSH4 0x23B872DD CALLER PUSH1 0x1 PUSH1 0x0 SWAP1 SLOAD SWAP1 PUSH2 0x100 EXP SWAP1 DIV PUSH20 0xFFFFFFFFFFFFFFFFFFFFFFFFFFFFFFFFFFFFFFFF AND DUP5 PUSH1 0x40 MLOAD DUP5 PUSH4 0xFFFFFFFF AND PUSH1 0xE0 SHL DUP2 MSTORE PUSH1 0x4 ADD PUSH2 0x119D SWAP4 SWAP3 SWAP2 SWAP1 PUSH2 0x2052 JUMP JUMPDEST PUSH1 0x20 PUSH1 0x40 MLOAD DUP1 DUP4 SUB DUP2 PUSH1 0x0 DUP8 GAS CALL ISZERO DUP1 ISZERO PUSH2 0x11BC JUMPI RETURNDATASIZE PUSH1 0x0 DUP1 RETURNDATACOPY RETURNDATASIZE PUSH1 0x0 REVERT JUMPDEST POP POP POP POP PUSH1 0x40 MLOAD RETURNDATASIZE PUSH1 0x1F NOT PUSH1 0x1F DUP3 ADD AND DUP3 ADD DUP1 PUSH1 0x40 MSTORE POP DUP2 ADD SWAP1 PUSH2 0x11E0 SWAP2 SWAP1 PUSH2 0x2025 JUMP JUMPDEST PUSH2 0x121F JUMPI PUSH1 0x40 MLOAD PUSH32 0x8C379A000000000000000000000000000000000000000000000000000000000 DUP2 MSTORE PUSH1 0x4 ADD PUSH2 0x1216 SWAP1 PUSH2 0x255A JUMP JUMPDEST PUSH1 0x40 MLOAD DUP1 SWAP2 SUB SWAP1 REVERT JUMPDEST PUSH1 0x2 CALLER SWAP1 DUP1 PUSH1 0x1 DUP2 SLOAD ADD DUP1 DUP3 SSTORE DUP1 SWAP2 POP POP PUSH1 0x1 SWAP1 SUB SWAP1 PUSH1 0x0 MSTORE PUSH1 0x20 PUSH1 0x0 KECCAK256 ADD PUSH1 0x0 SWAP1 SWAP2 SWAP1 SWAP2 SWAP1 SWAP2 PUSH2 0x100 EXP DUP2 SLOAD DUP2 PUSH20 0xFFFFFFFFFFFFFFFFFFFFFFFFFFFFFFFFFFFFFFFF MUL NOT AND SWAP1 DUP4 PUSH20 0xFFFFFFFFFFFFFFFFFFFFFFFFFFFFFFFFFFFFFFFF AND MUL OR SWAP1 SSTORE POP PUSH1 0x40 MLOAD DUP1 PUSH2 0x120 ADD PUSH1 0x40 MSTORE DUP1 DUP4 PUSH1 0x0 DUP2 MLOAD DUP2 LT PUSH2 0x12A2 JUMPI PUSH2 0x12A1 PUSH2 0x21F8 JUMP JUMPDEST JUMPDEST PUSH1 0x20 MUL PUSH1 0x20 ADD ADD MLOAD DUP2 MSTORE PUSH1 0x20 ADD DUP4 PUSH1 0x1 DUP2 MLOAD DUP2 LT PUSH2 0x12C3 JUMPI PUSH2 0x12C2 PUSH2 0x21F8 JUMP JUMPDEST JUMPDEST PUSH1 0x20 MUL PUSH1 0x20 ADD ADD MLOAD DUP2 MSTORE PUSH1 0x20 ADD DUP4 PUSH1 0x2 DUP2 MLOAD DUP2 LT PUSH2 0x12E4 JUMPI PUSH2 0x12E3 PUSH2 0x21F8 JUMP JUMPDEST JUMPDEST PUSH1 0x20 MUL PUSH1 0x20 ADD ADD MLOAD DUP2 MSTORE PUSH1 0x20 ADD DUP4 PUSH1 0x3 DUP2 MLOAD DUP2 LT PUSH2 0x1305 JUMPI PUSH2 0x1304 PUSH2 0x21F8 JUMP JUMPDEST JUMPDEST PUSH1 0x20 MUL PUSH1 0x20 ADD ADD MLOAD DUP2 MSTORE PUSH1 0x20 ADD DUP4 PUSH1 0x4 DUP2 MLOAD DUP2 LT PUSH2 0x1326 JUMPI PUSH2 0x1325 PUSH2 0x21F8 JUMP JUMPDEST JUMPDEST PUSH1 0x20 MUL PUSH1 0x20 ADD ADD MLOAD DUP2 MSTORE PUSH1 0x20 ADD DUP4 PUSH1 0x5 DUP2 MLOAD DUP2 LT PUSH2 0x1347 JUMPI PUSH2 0x1346 PUSH2 0x21F8 JUMP JUMPDEST JUMPDEST PUSH1 0x20 MUL PUSH1 0x20 ADD ADD MLOAD DUP2 MSTORE PUSH1 0x20 ADD DUP4 PUSH1 0x6 DUP2 MLOAD DUP2 LT PUSH2 0x1368 JUMPI PUSH2 0x1367 PUSH2 0x21F8 JUMP JUMPDEST JUMPDEST PUSH1 0x20 MUL PUSH1 0x20 ADD ADD MLOAD DUP2 MSTORE PUSH1 0x20 ADD DUP4 PUSH1 0x7 DUP2 MLOAD DUP2 LT PUSH2 0x1389 JUMPI PUSH2 0x1388 PUSH2 0x21F8 JUMP JUMPDEST JUMPDEST PUSH1 0x20 MUL PUSH1 0x20 ADD ADD MLOAD DUP2 MSTORE PUSH1 0x20 ADD DUP4 PUSH1 0x8 DUP2 MLOAD DUP2 LT PUSH2 0x13AA JUMPI PUSH2 0x13A9 PUSH2 0x21F8 JUMP JUMPDEST JUMPDEST PUSH1 0x20 MUL PUSH1 0x20 ADD ADD MLOAD DUP2 MSTORE POP PUSH1 0x3 PUSH1 0x0 CALLER PUSH20 0xFFFFFFFFFFFFFFFFFFFFFFFFFFFFFFFFFFFFFFFF AND PUSH20 0xFFFFFFFFFFFFFFFFFFFFFFFFFFFFFFFFFFFFFFFF AND DUP2 MSTORE PUSH1 0x20 ADD SWAP1 DUP2 MSTORE PUSH1 0x20 ADD PUSH1 0x0 KECCAK256 PUSH1 0x0 DUP3 ADD MLOAD DUP2 PUSH1 0x0 ADD SSTORE PUSH1 0x20 DUP3 ADD MLOAD DUP2 PUSH1 0x1 ADD SSTORE PUSH1 0x40 DUP3 ADD MLOAD DUP2 PUSH1 0x2 ADD SSTORE PUSH1 0x60 DUP3 ADD MLOAD DUP2 PUSH1 0x3 ADD SSTORE PUSH1 0x80 DUP3 ADD MLOAD DUP2 PUSH1 0x4 ADD SSTORE PUSH1 0xA0 DUP3 ADD MLOAD DUP2 PUSH1 0x5 ADD SSTORE PUSH1 0xC0 DUP3 ADD MLOAD DUP2 PUSH1 0x6 ADD SSTORE PUSH1 0xE0 DUP3 ADD MLOAD DUP2 PUSH1 0x7 ADD SSTORE PUSH2 0x100 DUP3 ADD MLOAD DUP2 PUSH1 0x8 ADD SSTORE SWAP1 POP POP CALLER PUSH20 0xFFFFFFFFFFFFFFFFFFFFFFFFFFFFFFFFFFFFFFFF AND PUSH32 0x43E08D78302CDF9C94E1FFD293C2A3696139EE41CF3199B6F5EED9C7F6CC6090 DUP3 PUSH1 0x40 MLOAD PUSH2 0x1498 SWAP2 SWAP1 PUSH2 0x1B02 JUMP JUMPDEST PUSH1 0x40 MLOAD DUP1 SWAP2 SUB SWAP1 LOG2 POP POP JUMP JUMPDEST PUSH1 0x5 DUP2 DUP2 SLOAD DUP2 LT PUSH2 0x14B4 JUMPI PUSH1 0x0 DUP1 REVERT JUMPDEST SWAP1 PUSH1 0x0 MSTORE PUSH1 0x20 PUSH1 0x0 KECCAK256 ADD PUSH1 0x0 SWAP2 POP SWAP1 POP SLOAD DUP2 JUMP JUMPDEST PUSH1 0x0 JUMPDEST PUSH1 0x2 DUP1 SLOAD SWAP1 POP DUP2 LT ISZERO PUSH2 0x15CF JUMPI PUSH1 0x0 PUSH1 0x2 DUP3 DUP2 SLOAD DUP2 LT PUSH2 0x14EE JUMPI PUSH2 0x14ED PUSH2 0x21F8 JUMP JUMPDEST JUMPDEST SWAP1 PUSH1 0x0 MSTORE PUSH1 0x20 PUSH1 0x0 KECCAK256 ADD PUSH1 0x0 SWAP1 SLOAD SWAP1 PUSH2 0x100 EXP SWAP1 DIV PUSH20 0xFFFFFFFFFFFFFFFFFFFFFFFFFFFFFFFFFFFFFFFF AND SWAP1 POP PUSH1 0x0 PUSH2 0x1526 DUP3 PUSH2 0x15D2 JUMP JUMPDEST SWAP1 POP DUP1 PUSH1 0x4 PUSH1 0x0 DUP5 PUSH20 0xFFFFFFFFFFFFFFFFFFFFFFFFFFFFFFFFFFFFFFFF AND PUSH20 0xFFFFFFFFFFFFFFFFFFFFFFFFFFFFFFFFFFFFFFFF AND DUP2 MSTORE PUSH1 0x20 ADD SWAP1 DUP2 MSTORE PUSH1 0x20 ADD PUSH1 0x0 KECCAK256 DUP2 SWAP1 SSTORE POP DUP2 PUSH20 0xFFFFFFFFFFFFFFFFFFFFFFFFFFFFFFFFFFFFFFFF AND PUSH32 0x483641552B4CDD80C6407FA2667163A422D3DA9BE81D2C23EFBFACA9944029F2 DUP3 PUSH1 0x40 MLOAD PUSH2 0x15B2 SWAP2 SWAP1 PUSH2 0x1B02 JUMP JUMPDEST PUSH1 0x40 MLOAD DUP1 SWAP2 SUB SWAP1 LOG2 POP POP DUP1 DUP1 PUSH2 0x15C7 SWAP1 PUSH2 0x2287 JUMP JUMPDEST SWAP2 POP POP PUSH2 0x14CB JUMP JUMPDEST POP JUMP JUMPDEST PUSH1 0x0 DUP1 PUSH1 0x0 SWAP1 POP PUSH1 0x0 PUSH1 0x3 PUSH1 0x0 DUP6 PUSH20 0xFFFFFFFFFFFFFFFFFFFFFFFFFFFFFFFFFFFFFFFF AND PUSH20 0xFFFFFFFFFFFFFFFFFFFFFFFFFFFFFFFFFFFFFFFF AND DUP2 MSTORE PUSH1 0x20 ADD SWAP1 DUP2 MSTORE PUSH1 0x20 ADD PUSH1 0x0 KECCAK256 PUSH1 0x40 MLOAD DUP1 PUSH2 0x120 ADD PUSH1 0x40 MSTORE SWAP1 DUP2 PUSH1 0x0 DUP3 ADD SLOAD DUP2 MSTORE PUSH1 0x20 ADD PUSH1 0x1 DUP3 ADD SLOAD DUP2 MSTORE PUSH1 0x20 ADD PUSH1 0x2 DUP3 ADD SLOAD DUP2 MSTORE PUSH1 0x20 ADD PUSH1 0x3 DUP3 ADD SLOAD DUP2 MSTORE PUSH1 0x20 ADD PUSH1 0x4 DUP3 ADD SLOAD DUP2 MSTORE PUSH1 0x20 ADD PUSH1 0x5 DUP3 ADD SLOAD DUP2 MSTORE PUSH1 0x20 ADD PUSH1 0x6 DUP3 ADD SLOAD DUP2 MSTORE PUSH1 0x20 ADD PUSH1 0x7 DUP3 ADD SLOAD DUP2 MSTORE PUSH1 0x20 ADD PUSH1 0x8 DUP3 ADD SLOAD DUP2 MSTORE POP POP SWAP1 POP PUSH1 0x5 PUSH1 0x1 DUP2 SLOAD DUP2 LT PUSH2 0x1697 JUMPI PUSH2 0x1696 PUSH2 0x21F8 JUMP JUMPDEST JUMPDEST SWAP1 PUSH1 0x0 MSTORE PUSH1 0x20 PUSH1 0x0 KECCAK256 ADD SLOAD PUSH1 0x5 PUSH1 0x0 DUP2 SLOAD DUP2 LT PUSH2 0x16B7 JUMPI PUSH2 0x16B6 PUSH2 0x21F8 JUMP JUMPDEST JUMPDEST SWAP1 PUSH1 0x0 MSTORE PUSH1 0x20 PUSH1 0x0 KECCAK256 ADD SLOAD PUSH2 0x16CC SWAP2 SWAP1 PUSH2 0x22CF JUMP JUMPDEST DUP2 PUSH1 0x0 ADD MLOAD SUB PUSH2 0x1701 JUMPI PUSH1 0xA PUSH1 0x11 DUP3 PUSH1 0x20 ADD MLOAD PUSH2 0x16E9 SWAP2 SWAP1 PUSH2 0x257A JUMP JUMPDEST PUSH2 0x16F3 SWAP2 SWAP1 PUSH2 0x2256 JUMP JUMPDEST DUP3 PUSH2 0x16FE SWAP2 SWAP1 PUSH2 0x22CF JUMP JUMPDEST SWAP2 POP JUMPDEST PUSH1 0x0 DUP2 PUSH1 0x40 ADD MLOAD EQ DUP1 ISZERO PUSH2 0x176A JUMPI POP PUSH1 0x0 PUSH1 0x2 PUSH1 0x5 PUSH1 0x1 DUP2 SLOAD DUP2 LT PUSH2 0x1729 JUMPI PUSH2 0x1728 PUSH2 0x21F8 JUMP JUMPDEST JUMPDEST SWAP1 PUSH1 0x0 MSTORE PUSH1 0x20 PUSH1 0x0 KECCAK256 ADD SLOAD PUSH1 0x5 PUSH1 0x0 DUP2 SLOAD DUP2 LT PUSH2 0x1749 JUMPI PUSH2 0x1748 PUSH2 0x21F8 JUMP JUMPDEST JUMPDEST SWAP1 PUSH1 0x0 MSTORE PUSH1 0x20 PUSH1 0x0 KECCAK256 ADD SLOAD PUSH2 0x175E SWAP2 SWAP1 PUSH2 0x22CF JUMP JUMPDEST PUSH2 0x1768 SWAP2 SWAP1 PUSH2 0x21C7 JUMP JUMPDEST EQ JUMPDEST ISZERO PUSH2 0x179A JUMPI PUSH1 0xA PUSH1 0x13 DUP3 PUSH1 0x60 ADD MLOAD PUSH2 0x1782 SWAP2 SWAP1 PUSH2 0x257A JUMP JUMPDEST PUSH2 0x178C SWAP2 SWAP1 PUSH2 0x2256 JUMP JUMPDEST DUP3 PUSH2 0x1797 SWAP2 SWAP1 PUSH2 0x22CF JUMP JUMPDEST SWAP2 POP JUMPDEST PUSH1 0x1 DUP2 PUSH1 0x40 ADD MLOAD EQ DUP1 ISZERO PUSH2 0x1803 JUMPI POP PUSH1 0x1 PUSH1 0x2 PUSH1 0x5 PUSH1 0x1 DUP2 SLOAD DUP2 LT PUSH2 0x17C2 JUMPI PUSH2 0x17C1 PUSH2 0x21F8 JUMP JUMPDEST JUMPDEST SWAP1 PUSH1 0x0 MSTORE PUSH1 0x20 PUSH1 0x0 KECCAK256 ADD SLOAD PUSH1 0x5 PUSH1 0x0 DUP2 SLOAD DUP2 LT PUSH2 0x17E2 JUMPI PUSH2 0x17E1 PUSH2 0x21F8 JUMP JUMPDEST JUMPDEST SWAP1 PUSH1 0x0 MSTORE PUSH1 0x20 PUSH1 0x0 KECCAK256 ADD SLOAD PUSH2 0x17F7 SWAP2 SWAP1 PUSH2 0x22CF JUMP JUMPDEST PUSH2 0x1801 SWAP2 SWAP1 PUSH2 0x21C7 JUMP JUMPDEST EQ JUMPDEST ISZERO PUSH2 0x1833 JUMPI PUSH1 0xA PUSH1 0x13 DUP3 PUSH1 0x60 ADD MLOAD PUSH2 0x181B SWAP2 SWAP1 PUSH2 0x257A JUMP JUMPDEST PUSH2 0x1825 SWAP2 SWAP1 PUSH2 0x2256 JUMP JUMPDEST DUP3 PUSH2 0x1830 SWAP2 SWAP1 PUSH2 0x22CF JUMP JUMPDEST SWAP2 POP JUMPDEST PUSH1 0x5 PUSH1 0x0 DUP2 SLOAD DUP2 LT PUSH2 0x1848 JUMPI PUSH2 0x1847 PUSH2 0x21F8 JUMP JUMPDEST JUMPDEST SWAP1 PUSH1 0x0 MSTORE PUSH1 0x20 PUSH1 0x0 KECCAK256 ADD SLOAD DUP2 PUSH1 0x80 ADD MLOAD EQ DUP1 PUSH2 0x1886 JUMPI POP PUSH1 0x5 PUSH1 0x1 DUP2 SLOAD DUP2 LT PUSH2 0x1874 JUMPI PUSH2 0x1873 PUSH2 0x21F8 JUMP JUMPDEST JUMPDEST SWAP1 PUSH1 0x0 MSTORE PUSH1 0x20 PUSH1 0x0 KECCAK256 ADD SLOAD DUP2 PUSH1 0x80 ADD MLOAD EQ JUMPDEST ISZERO PUSH2 0x18B6 JUMPI PUSH1 0xA PUSH1 0x19 DUP3 PUSH1 0xA0 ADD MLOAD PUSH2 0x189E SWAP2 SWAP1 PUSH2 0x257A JUMP JUMPDEST PUSH2 0x18A8 SWAP2 SWAP1 PUSH2 0x2256 JUMP JUMPDEST DUP3 PUSH2 0x18B3 SWAP2 SWAP1 PUSH2 0x22CF JUMP JUMPDEST SWAP2 POP JUMPDEST PUSH1 0x5 PUSH1 0x0 DUP2 SLOAD DUP2 LT PUSH2 0x18CB JUMPI PUSH2 0x18CA PUSH2 0x21F8 JUMP JUMPDEST JUMPDEST SWAP1 PUSH1 0x0 MSTORE PUSH1 0x20 PUSH1 0x0 KECCAK256 ADD SLOAD DUP2 PUSH1 0xC0 ADD MLOAD EQ DUP1 ISZERO PUSH2 0x190A JUMPI POP PUSH1 0x5 PUSH1 0x1 DUP2 SLOAD DUP2 LT PUSH2 0x18F8 JUMPI PUSH2 0x18F7 PUSH2 0x21F8 JUMP JUMPDEST JUMPDEST SWAP1 PUSH1 0x0 MSTORE PUSH1 0x20 PUSH1 0x0 KECCAK256 ADD SLOAD DUP2 PUSH1 0xE0 ADD MLOAD EQ JUMPDEST DUP1 PUSH2 0x1965 JUMPI POP PUSH1 0x5 PUSH1 0x1 DUP2 SLOAD DUP2 LT PUSH2 0x1925 JUMPI PUSH2 0x1924 PUSH2 0x21F8 JUMP JUMPDEST JUMPDEST SWAP1 PUSH1 0x0 MSTORE PUSH1 0x20 PUSH1 0x0 KECCAK256 ADD SLOAD DUP2 PUSH1 0xC0 ADD MLOAD EQ DUP1 ISZERO PUSH2 0x1964 JUMPI POP PUSH1 0x5 PUSH1 0x0 DUP2 SLOAD DUP2 LT PUSH2 0x1952 JUMPI PUSH2 0x1951 PUSH2 0x21F8 JUMP JUMPDEST JUMPDEST SWAP1 PUSH1 0x0 MSTORE PUSH1 0x20 PUSH1 0x0 KECCAK256 ADD SLOAD DUP2 PUSH1 0xE0 ADD MLOAD EQ JUMPDEST JUMPDEST ISZERO PUSH2 0x198A JUMPI PUSH1 0xA DUP2 PUSH2 0x100 ADD MLOAD PUSH2 0x197C SWAP2 SWAP1 PUSH2 0x257A JUMP JUMPDEST DUP3 PUSH2 0x1987 SWAP2 SWAP1 PUSH2 0x22CF JUMP JUMPDEST SWAP2 POP JUMPDEST DUP2 SWAP3 POP POP POP SWAP2 SWAP1 POP JUMP JUMPDEST DUP3 DUP1 SLOAD DUP3 DUP3 SSTORE SWAP1 PUSH1 0x0 MSTORE PUSH1 0x20 PUSH1 0x0 KECCAK256 SWAP1 DUP2 ADD SWAP3 DUP3 ISZERO PUSH2 0x19D0 JUMPI SWAP2 PUSH1 0x20 MUL DUP3 ADD JUMPDEST DUP3 DUP2 GT ISZERO PUSH2 0x19CF JUMPI DUP3 MLOAD DUP3 SSTORE SWAP2 PUSH1 0x20 ADD SWAP2 SWAP1 PUSH1 0x1 ADD SWAP1 PUSH2 0x19B4 JUMP JUMPDEST JUMPDEST POP SWAP1 POP PUSH2 0x19DD SWAP2 SWAP1 PUSH2 0x1A2D JUMP JUMPDEST POP SWAP1 JUMP JUMPDEST PUSH1 0x40 MLOAD DUP1 PUSH2 0x120 ADD PUSH1 0x40 MSTORE DUP1 PUSH1 0x0 DUP2 MSTORE PUSH1 0x20 ADD PUSH1 0x0 DUP2 MSTORE PUSH1 0x20 ADD PUSH1 0x0 DUP2 MSTORE PUSH1 0x20 ADD PUSH1 0x0 DUP2 MSTORE PUSH1 0x20 ADD PUSH1 0x0 DUP2 MSTORE PUSH1 0x20 ADD PUSH1 0x0 DUP2 MSTORE PUSH1 0x20 ADD PUSH1 0x0 DUP2 MSTORE PUSH1 0x20 ADD PUSH1 0x0 DUP2 MSTORE PUSH1 0x20 ADD PUSH1 0x0 DUP2 MSTORE POP SWAP1 JUMP JUMPDEST JUMPDEST DUP1 DUP3 GT ISZERO PUSH2 0x1A46 JUMPI PUSH1 0x0 DUP2 PUSH1 0x0 SWAP1 SSTORE POP PUSH1 0x1 ADD PUSH2 0x1A2E JUMP JUMPDEST POP SWAP1 JUMP JUMPDEST PUSH1 0x0 PUSH1 0x40 MLOAD SWAP1 POP SWAP1 JUMP JUMPDEST PUSH1 0x0 DUP1 REVERT JUMPDEST PUSH1 0x0 DUP1 REVERT JUMPDEST PUSH1 0x0 PUSH20 0xFFFFFFFFFFFFFFFFFFFFFFFFFFFFFFFFFFFFFFFF DUP3 AND SWAP1 POP SWAP2 SWAP1 POP JUMP JUMPDEST PUSH1 0x0 PUSH2 0x1A89 DUP3 PUSH2 0x1A5E JUMP JUMPDEST SWAP1 POP SWAP2 SWAP1 POP JUMP JUMPDEST PUSH2 0x1A99 DUP2 PUSH2 0x1A7E JUMP JUMPDEST DUP2 EQ PUSH2 0x1AA4 JUMPI PUSH1 0x0 DUP1 REVERT JUMPDEST POP JUMP JUMPDEST PUSH1 0x0 DUP2 CALLDATALOAD SWAP1 POP PUSH2 0x1AB6 DUP2 PUSH2 0x1A90 JUMP JUMPDEST SWAP3 SWAP2 POP POP JUMP JUMPDEST PUSH1 0x0 PUSH1 0x20 DUP3 DUP5 SUB SLT ISZERO PUSH2 0x1AD2 JUMPI PUSH2 0x1AD1 PUSH2 0x1A54 JUMP JUMPDEST JUMPDEST PUSH1 0x0 PUSH2 0x1AE0 DUP5 DUP3 DUP6 ADD PUSH2 0x1AA7 JUMP JUMPDEST SWAP2 POP POP SWAP3 SWAP2 POP POP JUMP JUMPDEST PUSH1 0x0 DUP2 SWAP1 POP SWAP2 SWAP1 POP JUMP JUMPDEST PUSH2 0x1AFC DUP2 PUSH2 0x1AE9 JUMP JUMPDEST DUP3 MSTORE POP POP JUMP JUMPDEST PUSH1 0x0 PUSH1 0x20 DUP3 ADD SWAP1 POP PUSH2 0x1B17 PUSH1 0x0 DUP4 ADD DUP5 PUSH2 0x1AF3 JUMP JUMPDEST SWAP3 SWAP2 POP POP JUMP JUMPDEST PUSH1 0x0 DUP2 MLOAD SWAP1 POP SWAP2 SWAP1 POP JUMP JUMPDEST PUSH1 0x0 DUP3 DUP3 MSTORE PUSH1 0x20 DUP3 ADD SWAP1 POP SWAP3 SWAP2 POP POP JUMP JUMPDEST PUSH1 0x0 DUP2 SWAP1 POP PUSH1 0x20 DUP3 ADD SWAP1 POP SWAP2 SWAP1 POP JUMP JUMPDEST PUSH2 0x1B52 DUP2 PUSH2 0x1AE9 JUMP JUMPDEST DUP3 MSTORE POP POP JUMP JUMPDEST PUSH1 0x0 PUSH2 0x1B64 DUP4 DUP4 PUSH2 0x1B49 JUMP JUMPDEST PUSH1 0x20 DUP4 ADD SWAP1 POP SWAP3 SWAP2 POP POP JUMP JUMPDEST PUSH1 0x0 PUSH1 0x20 DUP3 ADD SWAP1 POP SWAP2 SWAP1 POP JUMP JUMPDEST PUSH1 0x0 PUSH2 0x1B88 DUP3 PUSH2 0x1B1D JUMP JUMPDEST PUSH2 0x1B92 DUP2 DUP6 PUSH2 0x1B28 JUMP JUMPDEST SWAP4 POP PUSH2 0x1B9D DUP4 PUSH2 0x1B39 JUMP JUMPDEST DUP1 PUSH1 0x0 JUMPDEST DUP4 DUP2 LT ISZERO PUSH2 0x1BCE JUMPI DUP2 MLOAD PUSH2 0x1BB5 DUP9 DUP3 PUSH2 0x1B58 JUMP JUMPDEST SWAP8 POP PUSH2 0x1BC0 DUP4 PUSH2 0x1B70 JUMP JUMPDEST SWAP3 POP POP PUSH1 0x1 DUP2 ADD SWAP1 POP PUSH2 0x1BA1 JUMP JUMPDEST POP DUP6 SWAP4 POP POP POP POP SWAP3 SWAP2 POP POP JUMP JUMPDEST PUSH1 0x0 PUSH1 0x20 DUP3 ADD SWAP1 POP DUP2 DUP2 SUB PUSH1 0x0 DUP4 ADD MSTORE PUSH2 0x1BF5 DUP2 DUP5 PUSH2 0x1B7D JUMP JUMPDEST SWAP1 POP SWAP3 SWAP2 POP POP JUMP JUMPDEST PUSH1 0x0 PUSH2 0x120 DUP3 ADD SWAP1 POP PUSH2 0x1C13 PUSH1 0x0 DUP4 ADD DUP13 PUSH2 0x1AF3 JUMP JUMPDEST PUSH2 0x1C20 PUSH1 0x20 DUP4 ADD DUP12 PUSH2 0x1AF3 JUMP JUMPDEST PUSH2 0x1C2D PUSH1 0x40 DUP4 ADD DUP11 PUSH2 0x1AF3 JUMP JUMPDEST PUSH2 0x1C3A PUSH1 0x60 DUP4 ADD DUP10 PUSH2 0x1AF3 JUMP JUMPDEST PUSH2 0x1C47 PUSH1 0x80 DUP4 ADD DUP9 PUSH2 0x1AF3 JUMP JUMPDEST PUSH2 0x1C54 PUSH1 0xA0 DUP4 ADD DUP8 PUSH2 0x1AF3 JUMP JUMPDEST PUSH2 0x1C61 PUSH1 0xC0 DUP4 ADD DUP7 PUSH2 0x1AF3 JUMP JUMPDEST PUSH2 0x1C6E PUSH1 0xE0 DUP4 ADD DUP6 PUSH2 0x1AF3 JUMP JUMPDEST PUSH2 0x1C7C PUSH2 0x100 DUP4 ADD DUP5 PUSH2 0x1AF3 JUMP JUMPDEST SWAP11 SWAP10 POP POP POP POP POP POP POP POP POP POP JUMP JUMPDEST PUSH2 0x1C93 DUP2 PUSH2 0x1AE9 JUMP JUMPDEST DUP2 EQ PUSH2 0x1C9E JUMPI PUSH1 0x0 DUP1 REVERT JUMPDEST POP JUMP JUMPDEST PUSH1 0x0 DUP2 CALLDATALOAD SWAP1 POP PUSH2 0x1CB0 DUP2 PUSH2 0x1C8A JUMP JUMPDEST SWAP3 SWAP2 POP POP JUMP JUMPDEST PUSH1 0x0 PUSH1 0x20 DUP3 DUP5 SUB SLT ISZERO PUSH2 0x1CCC JUMPI PUSH2 0x1CCB PUSH2 0x1A54 JUMP JUMPDEST JUMPDEST PUSH1 0x0 PUSH2 0x1CDA DUP5 DUP3 DUP6 ADD PUSH2 0x1CA1 JUMP JUMPDEST SWAP2 POP POP SWAP3 SWAP2 POP POP JUMP JUMPDEST PUSH2 0x1CEC DUP2 PUSH2 0x1A7E JUMP JUMPDEST DUP3 MSTORE POP POP JUMP JUMPDEST PUSH1 0x0 PUSH1 0x20 DUP3 ADD SWAP1 POP PUSH2 0x1D07 PUSH1 0x0 DUP4 ADD DUP5 PUSH2 0x1CE3 JUMP JUMPDEST SWAP3 SWAP2 POP POP JUMP JUMPDEST PUSH2 0x120 DUP3 ADD PUSH1 0x0 DUP3 ADD MLOAD PUSH2 0x1D24 PUSH1 0x0 DUP6 ADD DUP3 PUSH2 0x1B49 JUMP JUMPDEST POP PUSH1 0x20 DUP3 ADD MLOAD PUSH2 0x1D37 PUSH1 0x20 DUP6 ADD DUP3 PUSH2 0x1B49 JUMP JUMPDEST POP PUSH1 0x40 DUP3 ADD MLOAD PUSH2 0x1D4A PUSH1 0x40 DUP6 ADD DUP3 PUSH2 0x1B49 JUMP JUMPDEST POP PUSH1 0x60 DUP3 ADD MLOAD PUSH2 0x1D5D PUSH1 0x60 DUP6 ADD DUP3 PUSH2 0x1B49 JUMP JUMPDEST POP PUSH1 0x80 DUP3 ADD MLOAD PUSH2 0x1D70 PUSH1 0x80 DUP6 ADD DUP3 PUSH2 0x1B49 JUMP JUMPDEST POP PUSH1 0xA0 DUP3 ADD MLOAD PUSH2 0x1D83 PUSH1 0xA0 DUP6 ADD DUP3 PUSH2 0x1B49 JUMP JUMPDEST POP PUSH1 0xC0 DUP3 ADD MLOAD PUSH2 0x1D96 PUSH1 0xC0 DUP6 ADD DUP3 PUSH2 0x1B49 JUMP JUMPDEST POP PUSH1 0xE0 DUP3 ADD MLOAD PUSH2 0x1DA9 PUSH1 0xE0 DUP6 ADD DUP3 PUSH2 0x1B49 JUMP JUMPDEST POP PUSH2 0x100 DUP3 ADD MLOAD PUSH2 0x1DBE PUSH2 0x100 DUP6 ADD DUP3 PUSH2 0x1B49 JUMP JUMPDEST POP POP POP POP JUMP JUMPDEST PUSH1 0x0 PUSH2 0x120 DUP3 ADD SWAP1 POP PUSH2 0x1DDA PUSH1 0x0 DUP4 ADD DUP5 PUSH2 0x1D0D JUMP JUMPDEST SWAP3 SWAP2 POP POP JUMP JUMPDEST PUSH1 0x0 DUP1 REVERT JUMPDEST PUSH1 0x0 PUSH1 0x1F NOT PUSH1 0x1F DUP4 ADD AND SWAP1 POP SWAP2 SWAP1 POP JUMP JUMPDEST PUSH32 0x4E487B7100000000000000000000000000000000000000000000000000000000 PUSH1 0x0 MSTORE PUSH1 0x41 PUSH1 0x4 MSTORE PUSH1 0x24 PUSH1 0x0 REVERT JUMPDEST PUSH2 0x1E2E DUP3 PUSH2 0x1DE5 JUMP JUMPDEST DUP2 ADD DUP2 DUP2 LT PUSH8 0xFFFFFFFFFFFFFFFF DUP3 GT OR ISZERO PUSH2 0x1E4D JUMPI PUSH2 0x1E4C PUSH2 0x1DF6 JUMP JUMPDEST JUMPDEST DUP1 PUSH1 0x40 MSTORE POP POP POP JUMP JUMPDEST PUSH1 0x0 PUSH2 0x1E60 PUSH2 0x1A4A JUMP JUMPDEST SWAP1 POP PUSH2 0x1E6C DUP3 DUP3 PUSH2 0x1E25 JUMP JUMPDEST SWAP2 SWAP1 POP JUMP JUMPDEST PUSH1 0x0 PUSH8 0xFFFFFFFFFFFFFFFF DUP3 GT ISZERO PUSH2 0x1E8C JUMPI PUSH2 0x1E8B PUSH2 0x1DF6 JUMP JUMPDEST JUMPDEST PUSH1 0x20 DUP3 MUL SWAP1 POP PUSH1 0x20 DUP2 ADD SWAP1 POP SWAP2 SWAP1 POP JUMP JUMPDEST PUSH1 0x0 DUP1 REVERT JUMPDEST PUSH1 0x0 PUSH2 0x1EB5 PUSH2 0x1EB0 DUP5 PUSH2 0x1E71 JUMP JUMPDEST PUSH2 0x1E56 JUMP JUMPDEST SWAP1 POP DUP1 DUP4 DUP3 MSTORE PUSH1 0x20 DUP3 ADD SWAP1 POP PUSH1 0x20 DUP5 MUL DUP4 ADD DUP6 DUP2 GT ISZERO PUSH2 0x1ED8 JUMPI PUSH2 0x1ED7 PUSH2 0x1E9D JUMP JUMPDEST JUMPDEST DUP4 JUMPDEST DUP2 DUP2 LT ISZERO PUSH2 0x1F01 JUMPI DUP1 PUSH2 0x1EED DUP9 DUP3 PUSH2 0x1CA1 JUMP JUMPDEST DUP5 MSTORE PUSH1 0x20 DUP5 ADD SWAP4 POP POP PUSH1 0x20 DUP2 ADD SWAP1 POP PUSH2 0x1EDA JUMP JUMPDEST POP POP POP SWAP4 SWAP3 POP POP POP JUMP JUMPDEST PUSH1 0x0 DUP3 PUSH1 0x1F DUP4 ADD SLT PUSH2 0x1F20 JUMPI PUSH2 0x1F1F PUSH2 0x1DE0 JUMP JUMPDEST JUMPDEST DUP2 CALLDATALOAD PUSH2 0x1F30 DUP5 DUP3 PUSH1 0x20 DUP7 ADD PUSH2 0x1EA2 JUMP JUMPDEST SWAP2 POP POP SWAP3 SWAP2 POP POP JUMP JUMPDEST PUSH1 0x0 PUSH1 0x20 DUP3 DUP5 SUB SLT ISZERO PUSH2 0x1F4F JUMPI PUSH2 0x1F4E PUSH2 0x1A54 JUMP JUMPDEST JUMPDEST PUSH1 0x0 DUP3 ADD CALLDATALOAD PUSH8 0xFFFFFFFFFFFFFFFF DUP2 GT ISZERO PUSH2 0x1F6D JUMPI PUSH2 0x1F6C PUSH2 0x1A59 JUMP JUMPDEST JUMPDEST PUSH2 0x1F79 DUP5 DUP3 DUP6 ADD PUSH2 0x1F0B JUMP JUMPDEST SWAP2 POP POP SWAP3 SWAP2 POP POP JUMP JUMPDEST PUSH1 0x0 DUP2 MLOAD SWAP1 POP PUSH2 0x1F91 DUP2 PUSH2 0x1C8A JUMP JUMPDEST SWAP3 SWAP2 POP POP JUMP JUMPDEST PUSH1 0x0 PUSH1 0x20 DUP3 DUP5 SUB SLT ISZERO PUSH2 0x1FAD JUMPI PUSH2 0x1FAC PUSH2 0x1A54 JUMP JUMPDEST JUMPDEST PUSH1 0x0 PUSH2 0x1FBB DUP5 DUP3 DUP6 ADD PUSH2 0x1F82 JUMP JUMPDEST SWAP2 POP POP SWAP3 SWAP2 POP POP JUMP JUMPDEST PUSH1 0x0 PUSH1 0x40 DUP3 ADD SWAP1 POP PUSH2 0x1FD9 PUSH1 0x0 DUP4 ADD DUP6 PUSH2 0x1CE3 JUMP JUMPDEST PUSH2 0x1FE6 PUSH1 0x20 DUP4 ADD DUP5 PUSH2 0x1AF3 JUMP JUMPDEST SWAP4 SWAP3 POP POP POP JUMP JUMPDEST PUSH1 0x0 DUP2 ISZERO ISZERO SWAP1 POP SWAP2 SWAP1 POP JUMP JUMPDEST PUSH2 0x2002 DUP2 PUSH2 0x1FED JUMP JUMPDEST DUP2 EQ PUSH2 0x200D JUMPI PUSH1 0x0 DUP1 REVERT JUMPDEST POP JUMP JUMPDEST PUSH1 0x0 DUP2 MLOAD SWAP1 POP PUSH2 0x201F DUP2 PUSH2 0x1FF9 JUMP JUMPDEST SWAP3 SWAP2 POP POP JUMP JUMPDEST PUSH1 0x0 PUSH1 0x20 DUP3 DUP5 SUB SLT ISZERO PUSH2 0x203B JUMPI PUSH2 0x203A PUSH2 0x1A54 JUMP JUMPDEST JUMPDEST PUSH1 0x0 PUSH2 0x2049 DUP5 DUP3 DUP6 ADD PUSH2 0x2010 JUMP JUMPDEST SWAP2 POP POP SWAP3 SWAP2 POP POP JUMP JUMPDEST PUSH1 0x0 PUSH1 0x60 DUP3 ADD SWAP1 POP PUSH2 0x2067 PUSH1 0x0 DUP4 ADD DUP7 PUSH2 0x1CE3 JUMP JUMPDEST PUSH2 0x2074 PUSH1 0x20 DUP4 ADD DUP6 PUSH2 0x1CE3 JUMP JUMPDEST PUSH2 0x2081 PUSH1 0x40 DUP4 ADD DUP5 PUSH2 0x1AF3 JUMP JUMPDEST SWAP5 SWAP4 POP POP POP POP JUMP JUMPDEST PUSH1 0x0 DUP3 DUP3 MSTORE PUSH1 0x20 DUP3 ADD SWAP1 POP SWAP3 SWAP2 POP POP JUMP JUMPDEST PUSH32 0x4F6E6C7920636F6E7472616374206F776E65722063616E2063616C6C20746869 PUSH1 0x0 DUP3 ADD MSTORE PUSH32 0x732066756E6374696F6E2E000000000000000000000000000000000000000000 PUSH1 0x20 DUP3 ADD MSTORE POP JUMP JUMPDEST PUSH1 0x0 PUSH2 0x20F6 PUSH1 0x2B DUP4 PUSH2 0x2089 JUMP JUMPDEST SWAP2 POP PUSH2 0x2101 DUP3 PUSH2 0x209A JUMP JUMPDEST PUSH1 0x40 DUP3 ADD SWAP1 POP SWAP2 SWAP1 POP JUMP JUMPDEST PUSH1 0x0 PUSH1 0x20 DUP3 ADD SWAP1 POP DUP2 DUP2 SUB PUSH1 0x0 DUP4 ADD MSTORE PUSH2 0x2125 DUP2 PUSH2 0x20E9 JUMP JUMPDEST SWAP1 POP SWAP2 SWAP1 POP JUMP JUMPDEST PUSH32 0x44696365206861766520616C7265616479206265656E20726F6C6C65642E0000 PUSH1 0x0 DUP3 ADD MSTORE POP JUMP JUMPDEST PUSH1 0x0 PUSH2 0x2162 PUSH1 0x1E DUP4 PUSH2 0x2089 JUMP JUMPDEST SWAP2 POP PUSH2 0x216D DUP3 PUSH2 0x212C JUMP JUMPDEST PUSH1 0x20 DUP3 ADD SWAP1 POP SWAP2 SWAP1 POP JUMP JUMPDEST PUSH1 0x0 PUSH1 0x20 DUP3 ADD SWAP1 POP DUP2 DUP2 SUB PUSH1 0x0 DUP4 ADD MSTORE PUSH2 0x2191 DUP2 PUSH2 0x2155 JUMP JUMPDEST SWAP1 POP SWAP2 SWAP1 POP JUMP JUMPDEST PUSH32 0x4E487B7100000000000000000000000000000000000000000000000000000000 PUSH1 0x0 MSTORE PUSH1 0x12 PUSH1 0x4 MSTORE PUSH1 0x24 PUSH1 0x0 REVERT JUMPDEST PUSH1 0x0 PUSH2 0x21D2 DUP3 PUSH2 0x1AE9 JUMP JUMPDEST SWAP2 POP PUSH2 0x21DD DUP4 PUSH2 0x1AE9 JUMP JUMPDEST SWAP3 POP DUP3 PUSH2 0x21ED JUMPI PUSH2 0x21EC PUSH2 0x2198 JUMP JUMPDEST JUMPDEST DUP3 DUP3 MOD SWAP1 POP SWAP3 SWAP2 POP POP JUMP JUMPDEST PUSH32 0x4E487B7100000000000000000000000000000000000000000000000000000000 PUSH1 0x0 MSTORE PUSH1 0x32 PUSH1 0x4 MSTORE PUSH1 0x24 PUSH1 0x0 REVERT JUMPDEST PUSH32 0x4E487B7100000000000000000000000000000000000000000000000000000000 PUSH1 0x0 MSTORE PUSH1 0x11 PUSH1 0x4 MSTORE PUSH1 0x24 PUSH1 0x0 REVERT JUMPDEST PUSH1 0x0 PUSH2 0x2261 DUP3 PUSH2 0x1AE9 JUMP JUMPDEST SWAP2 POP PUSH2 0x226C DUP4 PUSH2 0x1AE9 JUMP JUMPDEST SWAP3 POP DUP3 PUSH2 0x227C JUMPI PUSH2 0x227B PUSH2 0x2198 JUMP JUMPDEST JUMPDEST DUP3 DUP3 DIV SWAP1 POP SWAP3 SWAP2 POP POP JUMP JUMPDEST PUSH1 0x0 PUSH2 0x2292 DUP3 PUSH2 0x1AE9 JUMP JUMPDEST SWAP2 POP PUSH32 0xFFFFFFFFFFFFFFFFFFFFFFFFFFFFFFFFFFFFFFFFFFFFFFFFFFFFFFFFFFFFFFFF DUP3 SUB PUSH2 0x22C4 JUMPI PUSH2 0x22C3 PUSH2 0x2227 JUMP JUMPDEST JUMPDEST PUSH1 0x1 DUP3 ADD SWAP1 POP SWAP2 SWAP1 POP JUMP JUMPDEST PUSH1 0x0 PUSH2 0x22DA DUP3 PUSH2 0x1AE9 JUMP JUMPDEST SWAP2 POP PUSH2 0x22E5 DUP4 PUSH2 0x1AE9 JUMP JUMPDEST SWAP3 POP DUP3 DUP3 ADD SWAP1 POP DUP1 DUP3 GT ISZERO PUSH2 0x22FD JUMPI PUSH2 0x22FC PUSH2 0x2227 JUMP JUMPDEST JUMPDEST SWAP3 SWAP2 POP POP JUMP JUMPDEST PUSH2 0x230C DUP2 PUSH2 0x1AE9 JUMP JUMPDEST DUP3 MSTORE POP POP JUMP JUMPDEST PUSH1 0x0 PUSH1 0x40 DUP3 ADD SWAP1 POP PUSH2 0x2327 PUSH1 0x0 DUP4 ADD DUP6 PUSH2 0x2303 JUMP JUMPDEST PUSH2 0x2334 PUSH1 0x20 DUP4 ADD DUP5 PUSH2 0x2303 JUMP JUMPDEST SWAP4 SWAP3 POP POP POP JUMP JUMPDEST PUSH1 0x0 DUP1 PUSH1 0x40 DUP4 DUP6 SUB SLT ISZERO PUSH2 0x2352 JUMPI PUSH2 0x2351 PUSH2 0x1A54 JUMP JUMPDEST JUMPDEST PUSH1 0x0 PUSH2 0x2360 DUP6 DUP3 DUP7 ADD PUSH2 0x1F82 JUMP JUMPDEST SWAP3 POP POP PUSH1 0x20 PUSH2 0x2371 DUP6 DUP3 DUP7 ADD PUSH2 0x1F82 JUMP JUMPDEST SWAP2 POP POP SWAP3 POP SWAP3 SWAP1 POP JUMP JUMPDEST PUSH1 0x0 PUSH1 0x40 DUP3 ADD SWAP1 POP PUSH2 0x2390 PUSH1 0x0 DUP4 ADD DUP6 PUSH2 0x1AF3 JUMP JUMPDEST PUSH2 0x239D PUSH1 0x20 DUP4 ADD DUP5 PUSH2 0x1AF3 JUMP JUMPDEST SWAP4 SWAP3 POP POP POP JUMP JUMPDEST PUSH32 0x596F752063616E206F6E6C7920636865636B20796F7572206F776E2062616C61 PUSH1 0x0 DUP3 ADD MSTORE PUSH32 0x6E63650000000000000000000000000000000000000000000000000000000000 PUSH1 0x20 DUP3 ADD MSTORE POP JUMP JUMPDEST PUSH1 0x0 PUSH2 0x2400 PUSH1 0x23 DUP4 PUSH2 0x2089 JUMP JUMPDEST SWAP2 POP PUSH2 0x240B DUP3 PUSH2 0x23A4 JUMP JUMPDEST PUSH1 0x40 DUP3 ADD SWAP1 POP SWAP2 SWAP1 POP JUMP JUMPDEST PUSH1 0x0 PUSH1 0x20 DUP3 ADD SWAP1 POP DUP2 DUP2 SUB PUSH1 0x0 DUP4 ADD MSTORE PUSH2 0x242F DUP2 PUSH2 0x23F3 JUMP JUMPDEST SWAP1 POP SWAP2 SWAP1 POP JUMP JUMPDEST PUSH32 0x596F752063616E206F6E6C79207669657720796F7572206F776E206265747300 PUSH1 0x0 DUP3 ADD MSTORE POP JUMP JUMPDEST PUSH1 0x0 PUSH2 0x246C PUSH1 0x1F DUP4 PUSH2 0x2089 JUMP JUMPDEST SWAP2 POP PUSH2 0x2477 DUP3 PUSH2 0x2436 JUMP JUMPDEST PUSH1 0x20 DUP3 ADD SWAP1 POP SWAP2 SWAP1 POP JUMP JUMPDEST PUSH1 0x0 PUSH1 0x20 DUP3 ADD SWAP1 POP DUP2 DUP2 SUB PUSH1 0x0 DUP4 ADD MSTORE PUSH2 0x249B DUP2 PUSH2 0x245F JUMP JUMPDEST SWAP1 POP SWAP2 SWAP1 POP JUMP JUMPDEST PUSH32 0x417070726F76616C206661696C65640000000000000000000000000000000000 PUSH1 0x0 DUP3 ADD MSTORE POP JUMP JUMPDEST PUSH1 0x0 PUSH2 0x24D8 PUSH1 0xF DUP4 PUSH2 0x2089 JUMP JUMPDEST SWAP2 POP PUSH2 0x24E3 DUP3 PUSH2 0x24A2 JUMP JUMPDEST PUSH1 0x20 DUP3 ADD SWAP1 POP SWAP2 SWAP1 POP JUMP JUMPDEST PUSH1 0x0 PUSH1 0x20 DUP3 ADD SWAP1 POP DUP2 DUP2 SUB PUSH1 0x0 DUP4 ADD MSTORE PUSH2 0x2507 DUP2 PUSH2 0x24CB JUMP JUMPDEST SWAP1 POP SWAP2 SWAP1 POP JUMP JUMPDEST PUSH32 0x4661696C656420746F207472616E736665722043485020746F6B656E732E0000 PUSH1 0x0 DUP3 ADD MSTORE POP JUMP JUMPDEST PUSH1 0x0 PUSH2 0x2544 PUSH1 0x1E DUP4 PUSH2 0x2089 JUMP JUMPDEST SWAP2 POP PUSH2 0x254F DUP3 PUSH2 0x250E JUMP JUMPDEST PUSH1 0x20 DUP3 ADD SWAP1 POP SWAP2 SWAP1 POP JUMP JUMPDEST PUSH1 0x0 PUSH1 0x20 DUP3 ADD SWAP1 POP DUP2 DUP2 SUB PUSH1 0x0 DUP4 ADD MSTORE PUSH2 0x2573 DUP2 PUSH2 0x2537 JUMP JUMPDEST SWAP1 POP SWAP2 SWAP1 POP JUMP JUMPDEST PUSH1 0x0 PUSH2 0x2585 DUP3 PUSH2 0x1AE9 JUMP JUMPDEST SWAP2 POP PUSH2 0x2590 DUP4 PUSH2 0x1AE9 JUMP JUMPDEST SWAP3 POP DUP3 DUP3 MUL PUSH2 0x259E DUP2 PUSH2 0x1AE9 JUMP JUMPDEST SWAP2 POP DUP3 DUP3 DIV DUP5 EQ DUP4 ISZERO OR PUSH2 0x25B5 JUMPI PUSH2 0x25B4 PUSH2 0x2227 JUMP JUMPDEST JUMPDEST POP SWAP3 SWAP2 POP POP JUMP INVALID LOG2 PUSH5 0x6970667358 0x22 SLT KECCAK256 0x24 BYTE 0xB5 PUSH2 0x104E 0x5D 0xBA 0xC0 0xD6 0xDF SHR PUSH24 0x1CC6B2AD8687914423F3E3BF13106772EEB84A64736F6C63 NUMBER STOP ADDMOD SLT STOP CALLER "
		},
		"gasEstimates": {
			"creation": {
				"codeDepositCost": "1942800",
				"executionCost": "infinite",
				"totalCost": "infinite"
			},
			"external": {
				"balanceOfPlayer(address)": "infinite",
				"dice(uint256)": "infinite",
				"diceArray(uint256)": "infinite",
				"diceLength()": "2535",
				"distributeWinningAmount()": "infinite",
				"fromRandom()": "infinite",
				"getDice()": "infinite",
				"getOwner()": "2567",
				"getPlayerBet(address)": "infinite",
				"getPlayerWinningAmount(address)": "2919",
				"owner()": "2600",
				"playerBet(address)": "infinite",
				"playerWinningAmount(address)": "2903",
				"registeredPlayers(uint256)": "5023",
				"rollDice()": "infinite",
				"setPlayerBet(uint256[])": "infinite",
				"tokenAddress()": "2536"
			},
			"internal": {
				"_calculateWinningAmount(address)": "infinite",
				"_calculateWinningAmounts()": "infinite"
			}
		},
		"methodIdentifiers": {
			"balanceOfPlayer(address)": "2911982e",
			"dice(uint256)": "f88d6732",
			"diceArray(uint256)": "5ba40c2e",
			"diceLength()": "390784b1",
			"distributeWinningAmount()": "334e4ff5",
			"fromRandom()": "59097195",
			"getDice()": "3851660f",
			"getOwner()": "893d20e8",
			"getPlayerBet(address)": "c137d643",
			"getPlayerWinningAmount(address)": "a0e2ef69",
			"owner()": "8da5cb5b",
			"playerBet(address)": "4251ea3c",
			"playerWinningAmount(address)": "6d30a29d",
			"registeredPlayers(uint256)": "89a5b229",
			"rollDice()": "837e7cc6",
			"setPlayerBet(uint256[])": "c3e5ed73",
			"tokenAddress()": "9d76ea58"
		}
	},
	"abi": [
		{
			"inputs": [
				{
					"internalType": "address",
					"name": "_tokenAddress",
					"type": "address"
				},
				{
					"internalType": "address",
					"name": "_owner",
					"type": "address"
				}
			],
			"stateMutability": "nonpayable",
			"type": "constructor"
		},
		{
			"anonymous": false,
			"inputs": [
				{
					"indexed": true,
					"internalType": "address",
					"name": "player",
					"type": "address"
				},
				{
					"indexed": false,
					"internalType": "uint256",
					"name": "amount",
					"type": "uint256"
				}
			],
			"name": "BetPlaced",
			"type": "event"
		},
		{
			"anonymous": false,
			"inputs": [
				{
					"indexed": true,
					"internalType": "address",
					"name": "player",
					"type": "address"
				},
				{
					"indexed": false,
					"internalType": "uint256",
					"name": "dice1",
					"type": "uint256"
				},
				{
					"indexed": false,
					"internalType": "uint256",
					"name": "dice2",
					"type": "uint256"
				}
			],
			"name": "DiceRolled",
			"type": "event"
		},
		{
			"anonymous": false,
			"inputs": [
				{
					"indexed": true,
					"internalType": "address",
					"name": "player",
					"type": "address"
				},
				{
					"indexed": false,
					"internalType": "uint256",
					"name": "amount",
					"type": "uint256"
				}
			],
			"name": "WinningAmountCalculated",
			"type": "event"
		},
		{
			"inputs": [
				{
					"internalType": "address",
					"name": "_player",
					"type": "address"
				}
			],
			"name": "balanceOfPlayer",
			"outputs": [
				{
					"internalType": "uint256",
					"name": "",
					"type": "uint256"
				}
			],
			"stateMutability": "view",
			"type": "function"
		},
		{
			"inputs": [
				{
					"internalType": "uint256",
					"name": "",
					"type": "uint256"
				}
			],
			"name": "dice",
			"outputs": [
				{
					"internalType": "uint256",
					"name": "",
					"type": "uint256"
				}
			],
			"stateMutability": "view",
			"type": "function"
		},
		{
			"inputs": [
				{
					"internalType": "uint256",
					"name": "",
					"type": "uint256"
				}
			],
			"name": "diceArray",
			"outputs": [
				{
					"internalType": "uint256",
					"name": "",
					"type": "uint256"
				}
			],
			"stateMutability": "view",
			"type": "function"
		},
		{
			"inputs": [],
			"name": "diceLength",
			"outputs": [
				{
					"internalType": "uint256",
					"name": "",
					"type": "uint256"
				}
			],
			"stateMutability": "view",
			"type": "function"
		},
		{
			"inputs": [],
			"name": "distributeWinningAmount",
			"outputs": [],
			"stateMutability": "nonpayable",
			"type": "function"
		},
		{
			"inputs": [],
			"name": "fromRandom",
			"outputs": [],
			"stateMutability": "nonpayable",
			"type": "function"
		},
		{
			"inputs": [],
			"name": "getDice",
			"outputs": [
				{
					"internalType": "uint256[]",
					"name": "",
					"type": "uint256[]"
				}
			],
			"stateMutability": "view",
			"type": "function"
		},
		{
			"inputs": [],
			"name": "getOwner",
			"outputs": [
				{
					"internalType": "address",
					"name": "",
					"type": "address"
				}
			],
			"stateMutability": "view",
			"type": "function"
		},
		{
			"inputs": [
				{
					"internalType": "address",
					"name": "_player",
					"type": "address"
				}
			],
			"name": "getPlayerBet",
			"outputs": [
				{
					"components": [
						{
							"internalType": "uint256",
							"name": "diceSum",
							"type": "uint256"
						},
						{
							"internalType": "uint256",
							"name": "diceSumBet",
							"type": "uint256"
						},
						{
							"internalType": "uint256",
							"name": "sumParity",
							"type": "uint256"
						},
						{
							"internalType": "uint256",
							"name": "sumParityBet",
							"type": "uint256"
						},
						{
							"internalType": "uint256",
							"name": "oneDieNum",
							"type": "uint256"
						},
						{
							"internalType": "uint256",
							"name": "oneDieNumBet",
							"type": "uint256"
						},
						{
							"internalType": "uint256",
							"name": "dieOneNum",
							"type": "uint256"
						},
						{
							"internalType": "uint256",
							"name": "dieTwoNum",
							"type": "uint256"
						},
						{
							"internalType": "uint256",
							"name": "dieOneTwoNumBet",
							"type": "uint256"
						}
					],
					"internalType": "struct CrapsGame.Bet",
					"name": "",
					"type": "tuple"
				}
			],
			"stateMutability": "view",
			"type": "function"
		},
		{
			"inputs": [
				{
					"internalType": "address",
					"name": "_player",
					"type": "address"
				}
			],
			"name": "getPlayerWinningAmount",
			"outputs": [
				{
					"internalType": "uint256",
					"name": "",
					"type": "uint256"
				}
			],
			"stateMutability": "view",
			"type": "function"
		},
		{
			"inputs": [],
			"name": "owner",
			"outputs": [
				{
					"internalType": "address",
					"name": "",
					"type": "address"
				}
			],
			"stateMutability": "view",
			"type": "function"
		},
		{
			"inputs": [
				{
					"internalType": "address",
					"name": "",
					"type": "address"
				}
			],
			"name": "playerBet",
			"outputs": [
				{
					"internalType": "uint256",
					"name": "diceSum",
					"type": "uint256"
				},
				{
					"internalType": "uint256",
					"name": "diceSumBet",
					"type": "uint256"
				},
				{
					"internalType": "uint256",
					"name": "sumParity",
					"type": "uint256"
				},
				{
					"internalType": "uint256",
					"name": "sumParityBet",
					"type": "uint256"
				},
				{
					"internalType": "uint256",
					"name": "oneDieNum",
					"type": "uint256"
				},
				{
					"internalType": "uint256",
					"name": "oneDieNumBet",
					"type": "uint256"
				},
				{
					"internalType": "uint256",
					"name": "dieOneNum",
					"type": "uint256"
				},
				{
					"internalType": "uint256",
					"name": "dieTwoNum",
					"type": "uint256"
				},
				{
					"internalType": "uint256",
					"name": "dieOneTwoNumBet",
					"type": "uint256"
				}
			],
			"stateMutability": "view",
			"type": "function"
		},
		{
			"inputs": [
				{
					"internalType": "address",
					"name": "",
					"type": "address"
				}
			],
			"name": "playerWinningAmount",
			"outputs": [
				{
					"internalType": "uint256",
					"name": "",
					"type": "uint256"
				}
			],
			"stateMutability": "view",
			"type": "function"
		},
		{
			"inputs": [
				{
					"internalType": "uint256",
					"name": "",
					"type": "uint256"
				}
			],
			"name": "registeredPlayers",
			"outputs": [
				{
					"internalType": "address",
					"name": "",
					"type": "address"
				}
			],
			"stateMutability": "view",
			"type": "function"
		},
		{
			"inputs": [],
			"name": "rollDice",
			"outputs": [],
			"stateMutability": "nonpayable",
			"type": "function"
		},
		{
			"inputs": [
				{
					"internalType": "uint256[]",
					"name": "_bet",
					"type": "uint256[]"
				}
			],
			"name": "setPlayerBet",
			"outputs": [],
			"stateMutability": "nonpayable",
			"type": "function"
		},
		{
			"inputs": [],
			"name": "tokenAddress",
			"outputs": [
				{
					"internalType": "address",
					"name": "",
					"type": "address"
				}
			],
			"stateMutability": "view",
			"type": "function"
		}
	]
}